{
  "_format": "hh-sol-artifact-1",
  "contractName": "MyEpicGame",
  "sourceName": "contracts/MyEpicGame.sol",
  "abi": [
    {
      "inputs": [
        {
          "internalType": "string[]",
          "name": "characterNames",
          "type": "string[]"
        },
        {
          "internalType": "string[]",
          "name": "characterImageURIs",
          "type": "string[]"
        },
        {
          "internalType": "uint256[]",
          "name": "characterHp",
          "type": "uint256[]"
        },
        {
          "internalType": "uint256[]",
          "name": "characterAttackDmg",
          "type": "uint256[]"
        },
        {
          "internalType": "string",
          "name": "bossName",
          "type": "string"
        },
        {
          "internalType": "string",
          "name": "bossImageURI",
          "type": "string"
        },
        {
          "internalType": "uint256",
          "name": "bossHp",
          "type": "uint256"
        },
        {
          "internalType": "uint256",
          "name": "bossAttackDamage",
          "type": "uint256"
        }
      ],
      "stateMutability": "nonpayable",
      "type": "constructor"
    },
    {
      "anonymous": false,
      "inputs": [
        {
          "indexed": true,
          "internalType": "address",
          "name": "owner",
          "type": "address"
        },
        {
          "indexed": true,
          "internalType": "address",
          "name": "approved",
          "type": "address"
        },
        {
          "indexed": true,
          "internalType": "uint256",
          "name": "tokenId",
          "type": "uint256"
        }
      ],
      "name": "Approval",
      "type": "event"
    },
    {
      "anonymous": false,
      "inputs": [
        {
          "indexed": true,
          "internalType": "address",
          "name": "owner",
          "type": "address"
        },
        {
          "indexed": true,
          "internalType": "address",
          "name": "operator",
          "type": "address"
        },
        {
          "indexed": false,
          "internalType": "bool",
          "name": "approved",
          "type": "bool"
        }
      ],
      "name": "ApprovalForAll",
      "type": "event"
    },
    {
      "anonymous": false,
      "inputs": [
        {
          "indexed": false,
          "internalType": "uint256",
          "name": "newBossHp",
          "type": "uint256"
        },
        {
          "indexed": false,
          "internalType": "uint256",
          "name": "newPlayerHp",
          "type": "uint256"
        }
      ],
      "name": "AttackComplete",
      "type": "event"
    },
    {
      "anonymous": false,
      "inputs": [
        {
          "indexed": false,
          "internalType": "address",
          "name": "sender",
          "type": "address"
        },
        {
          "indexed": false,
          "internalType": "uint256",
          "name": "tokenId",
          "type": "uint256"
        },
        {
          "indexed": false,
          "internalType": "uint256",
          "name": "characterIndex",
          "type": "uint256"
        }
      ],
      "name": "CharacterNFTMinted",
      "type": "event"
    },
    {
      "anonymous": false,
      "inputs": [
        {
          "indexed": false,
          "internalType": "uint256",
          "name": "newPlayerHP",
          "type": "uint256"
        }
      ],
      "name": "PlayerRevived",
      "type": "event"
    },
    {
      "anonymous": false,
      "inputs": [
        {
          "indexed": true,
          "internalType": "address",
          "name": "from",
          "type": "address"
        },
        {
          "indexed": true,
          "internalType": "address",
          "name": "to",
          "type": "address"
        },
        {
          "indexed": true,
          "internalType": "uint256",
          "name": "tokenId",
          "type": "uint256"
        }
      ],
      "name": "Transfer",
      "type": "event"
    },
    {
      "inputs": [
        {
          "internalType": "address",
          "name": "to",
          "type": "address"
        },
        {
          "internalType": "uint256",
          "name": "tokenId",
          "type": "uint256"
        }
      ],
      "name": "approve",
      "outputs": [],
      "stateMutability": "nonpayable",
      "type": "function"
    },
    {
      "inputs": [],
      "name": "attackBoss",
      "outputs": [],
      "stateMutability": "nonpayable",
      "type": "function"
    },
    {
      "inputs": [
        {
          "internalType": "address",
          "name": "owner",
          "type": "address"
        }
      ],
      "name": "balanceOf",
      "outputs": [
        {
          "internalType": "uint256",
          "name": "",
          "type": "uint256"
        }
      ],
      "stateMutability": "view",
      "type": "function"
    },
    {
      "inputs": [],
      "name": "bigBoss",
      "outputs": [
        {
          "internalType": "string",
          "name": "name",
          "type": "string"
        },
        {
          "internalType": "string",
          "name": "imageURI",
          "type": "string"
        },
        {
          "internalType": "uint256",
          "name": "hp",
          "type": "uint256"
        },
        {
          "internalType": "uint256",
          "name": "maxHp",
          "type": "uint256"
        },
        {
          "internalType": "uint256",
          "name": "attackDamage",
          "type": "uint256"
        }
      ],
      "stateMutability": "view",
      "type": "function"
    },
    {
      "inputs": [],
      "name": "checkIfUserHasNFT",
      "outputs": [
        {
          "components": [
            {
              "internalType": "uint256",
              "name": "characterIndex",
              "type": "uint256"
            },
            {
              "internalType": "string",
              "name": "name",
              "type": "string"
            },
            {
              "internalType": "string",
              "name": "imageURI",
              "type": "string"
            },
            {
              "internalType": "uint256",
              "name": "hp",
              "type": "uint256"
            },
            {
              "internalType": "uint256",
              "name": "maxHp",
              "type": "uint256"
            },
            {
              "internalType": "uint256",
              "name": "attackDamage",
              "type": "uint256"
            }
          ],
          "internalType": "struct MyEpicGame.CharacterAttributes",
          "name": "",
          "type": "tuple"
        }
      ],
      "stateMutability": "view",
      "type": "function"
    },
    {
      "inputs": [],
      "name": "getAllDefaultCharacters",
      "outputs": [
        {
          "components": [
            {
              "internalType": "uint256",
              "name": "characterIndex",
              "type": "uint256"
            },
            {
              "internalType": "string",
              "name": "name",
              "type": "string"
            },
            {
              "internalType": "string",
              "name": "imageURI",
              "type": "string"
            },
            {
              "internalType": "uint256",
              "name": "hp",
              "type": "uint256"
            },
            {
              "internalType": "uint256",
              "name": "maxHp",
              "type": "uint256"
            },
            {
              "internalType": "uint256",
              "name": "attackDamage",
              "type": "uint256"
            }
          ],
          "internalType": "struct MyEpicGame.CharacterAttributes[]",
          "name": "",
          "type": "tuple[]"
        }
      ],
      "stateMutability": "view",
      "type": "function"
    },
    {
      "inputs": [
        {
          "internalType": "uint256",
          "name": "tokenId",
          "type": "uint256"
        }
      ],
      "name": "getApproved",
      "outputs": [
        {
          "internalType": "address",
          "name": "",
          "type": "address"
        }
      ],
      "stateMutability": "view",
      "type": "function"
    },
    {
      "inputs": [],
      "name": "getBigBoss",
      "outputs": [
        {
          "components": [
            {
              "internalType": "string",
              "name": "name",
              "type": "string"
            },
            {
              "internalType": "string",
              "name": "imageURI",
              "type": "string"
            },
            {
              "internalType": "uint256",
              "name": "hp",
              "type": "uint256"
            },
            {
              "internalType": "uint256",
              "name": "maxHp",
              "type": "uint256"
            },
            {
              "internalType": "uint256",
              "name": "attackDamage",
              "type": "uint256"
            }
          ],
          "internalType": "struct MyEpicGame.BigBoss",
          "name": "",
          "type": "tuple"
        }
      ],
      "stateMutability": "view",
      "type": "function"
    },
    {
      "inputs": [
        {
          "internalType": "address",
          "name": "owner",
          "type": "address"
        },
        {
          "internalType": "address",
          "name": "operator",
          "type": "address"
        }
      ],
      "name": "isApprovedForAll",
      "outputs": [
        {
          "internalType": "bool",
          "name": "",
          "type": "bool"
        }
      ],
      "stateMutability": "view",
      "type": "function"
    },
    {
      "inputs": [
        {
          "internalType": "uint256",
          "name": "_characterIndex",
          "type": "uint256"
        }
      ],
      "name": "mintCharacterNFT",
      "outputs": [],
      "stateMutability": "nonpayable",
      "type": "function"
    },
    {
      "inputs": [],
      "name": "name",
      "outputs": [
        {
          "internalType": "string",
          "name": "",
          "type": "string"
        }
      ],
      "stateMutability": "view",
      "type": "function"
    },
    {
      "inputs": [
        {
          "internalType": "uint256",
          "name": "",
          "type": "uint256"
        }
      ],
      "name": "nftHolderAttributes",
      "outputs": [
        {
          "internalType": "uint256",
          "name": "characterIndex",
          "type": "uint256"
        },
        {
          "internalType": "string",
          "name": "name",
          "type": "string"
        },
        {
          "internalType": "string",
          "name": "imageURI",
          "type": "string"
        },
        {
          "internalType": "uint256",
          "name": "hp",
          "type": "uint256"
        },
        {
          "internalType": "uint256",
          "name": "maxHp",
          "type": "uint256"
        },
        {
          "internalType": "uint256",
          "name": "attackDamage",
          "type": "uint256"
        }
      ],
      "stateMutability": "view",
      "type": "function"
    },
    {
      "inputs": [
        {
          "internalType": "address",
          "name": "",
          "type": "address"
        }
      ],
      "name": "nftHolders",
      "outputs": [
        {
          "internalType": "uint256",
          "name": "",
          "type": "uint256"
        }
      ],
      "stateMutability": "view",
      "type": "function"
    },
    {
      "inputs": [
        {
          "internalType": "uint256",
          "name": "tokenId",
          "type": "uint256"
        }
      ],
      "name": "ownerOf",
      "outputs": [
        {
          "internalType": "address",
          "name": "",
          "type": "address"
        }
      ],
      "stateMutability": "view",
      "type": "function"
    },
    {
      "inputs": [],
      "name": "revivePlayerNFT",
      "outputs": [],
      "stateMutability": "payable",
      "type": "function"
    },
    {
      "inputs": [
        {
          "internalType": "address",
          "name": "from",
          "type": "address"
        },
        {
          "internalType": "address",
          "name": "to",
          "type": "address"
        },
        {
          "internalType": "uint256",
          "name": "tokenId",
          "type": "uint256"
        }
      ],
      "name": "safeTransferFrom",
      "outputs": [],
      "stateMutability": "nonpayable",
      "type": "function"
    },
    {
      "inputs": [
        {
          "internalType": "address",
          "name": "from",
          "type": "address"
        },
        {
          "internalType": "address",
          "name": "to",
          "type": "address"
        },
        {
          "internalType": "uint256",
          "name": "tokenId",
          "type": "uint256"
        },
        {
          "internalType": "bytes",
          "name": "_data",
          "type": "bytes"
        }
      ],
      "name": "safeTransferFrom",
      "outputs": [],
      "stateMutability": "nonpayable",
      "type": "function"
    },
    {
      "inputs": [
        {
          "internalType": "address",
          "name": "operator",
          "type": "address"
        },
        {
          "internalType": "bool",
          "name": "approved",
          "type": "bool"
        }
      ],
      "name": "setApprovalForAll",
      "outputs": [],
      "stateMutability": "nonpayable",
      "type": "function"
    },
    {
      "inputs": [
        {
          "internalType": "bytes4",
          "name": "interfaceId",
          "type": "bytes4"
        }
      ],
      "name": "supportsInterface",
      "outputs": [
        {
          "internalType": "bool",
          "name": "",
          "type": "bool"
        }
      ],
      "stateMutability": "view",
      "type": "function"
    },
    {
      "inputs": [],
      "name": "symbol",
      "outputs": [
        {
          "internalType": "string",
          "name": "",
          "type": "string"
        }
      ],
      "stateMutability": "view",
      "type": "function"
    },
    {
      "inputs": [
        {
          "internalType": "uint256",
          "name": "_tokenId",
          "type": "uint256"
        }
      ],
      "name": "tokenURI",
      "outputs": [
        {
          "internalType": "string",
          "name": "",
          "type": "string"
        }
      ],
      "stateMutability": "view",
      "type": "function"
    },
    {
      "inputs": [
        {
          "internalType": "address",
          "name": "from",
          "type": "address"
        },
        {
          "internalType": "address",
          "name": "to",
          "type": "address"
        },
        {
          "internalType": "uint256",
          "name": "tokenId",
          "type": "uint256"
        }
      ],
      "name": "transferFrom",
      "outputs": [],
      "stateMutability": "nonpayable",
      "type": "function"
    }
  ],
  "bytecode": "0x60806040523480156200001157600080fd5b5060405162005d3638038062005d36833981810160405281019062000037919062000bfc565b6040518060400160405280600e81526020017f4865726f73206f6620416e696d750000000000000000000000000000000000008152506040518060400160405280600681526020017f414e494d555300000000000000000000000000000000000000000000000000008152508160009080519060200190620000bb9291906200098f565b508060019080519060200190620000d49291906200098f565b5050506040518060a0016040528085815260200184815260200183815260200183815260200182815250600a60008201518160000190805190602001906200011e9291906200098f565b5060208201518160010190805190602001906200013d9291906200098f565b50604082015181600201556060820151816003015560808201518160040155905050620002c06040518060600160405280602a815260200162005cdc602a9139600a60000180546200018f906200101d565b80601f0160208091040260200160405190810160405280929190818152602001828054620001bd906200101d565b80156200020e5780601f10620001e2576101008083540402835291602001916200020e565b820191906000526020600020905b815481529060010190602001808311620001f057829003601f168201915b5050505050600a60020154600a60010180546200022b906200101d565b80601f016020809104026020016040519081016040528092919081815260200182805462000259906200101d565b8015620002aa5780601f106200027e57610100808354040283529160200191620002aa565b820191906000526020600020905b8154815290600101906020018083116200028c57829003601f168201915b50505050506200075260201b62001fa81760201c565b60005b88518110156200072c5760076040518060c001604052808381526020018b84815181106200031a577f4e487b7100000000000000000000000000000000000000000000000000000000600052603260045260246000fd5b602002602001015181526020018a848151811062000361577f4e487b7100000000000000000000000000000000000000000000000000000000600052603260045260246000fd5b60200260200101518152602001898481518110620003a8577f4e487b7100000000000000000000000000000000000000000000000000000000600052603260045260246000fd5b60200260200101518152602001898481518110620003ef577f4e487b7100000000000000000000000000000000000000000000000000000000600052603260045260246000fd5b6020026020010151815260200188848151811062000436577f4e487b7100000000000000000000000000000000000000000000000000000000600052603260045260246000fd5b60200260200101518152509080600181540180825580915050600190039060005260206000209060060201600090919091909150600082015181600001556020820151816001019080519060200190620004929291906200098f565b506040820151816002019080519060200190620004b19291906200098f565b50606082015181600301556080820151816004015560a0820151816005015550506000600782815481106200050f577f4e487b7100000000000000000000000000000000000000000000000000000000600052603260045260246000fd5b90600052602060002090600602016040518060c00160405290816000820154815260200160018201805462000544906200101d565b80601f016020809104026020016040519081016040528092919081815260200182805462000572906200101d565b8015620005c35780601f106200059757610100808354040283529160200191620005c3565b820191906000526020600020905b815481529060010190602001808311620005a557829003601f168201915b50505050508152602001600282018054620005de906200101d565b80601f01602080910402602001604051908101604052809291908181526020018280546200060c906200101d565b80156200065d5780601f1062000631576101008083540402835291602001916200065d565b820191906000526020600020905b8154815290600101906020018083116200063f57829003601f168201915b5050505050815260200160038201548152602001600482015481526020016005820154815250509050620006c460405180606001604052806030815260200162005d0660309139826020015183606001518460a00151620007fe60201b6200204a1760201c565b620007146040518060400160405280600681526020017f696d6720257300000000000000000000000000000000000000000000000000008152508260400151620008aa60201b620020ec1760201c565b5060018162000724919062000f80565b9050620002c3565b506200074460066200095060201b620021881760201c565b50505050505050506200110b565b620007f8848484846040516024016200076f949392919062000de2565b6040516020818303038152906040527f8d142cdd000000000000000000000000000000000000000000000000000000007bffffffffffffffffffffffffffffffffffffffffffffffffffffffff19166020820180517bffffffffffffffffffffffffffffffffffffffffffffffffffffffff83818316178352505050506200096660201b60201c565b50505050565b620008a4848484846040516024016200081b949392919062000e44565b6040516020818303038152906040527fd5cf17d0000000000000000000000000000000000000000000000000000000007bffffffffffffffffffffffffffffffffffffffffffffffffffffffff19166020820180517bffffffffffffffffffffffffffffffffffffffffffffffffffffffff83818316178352505050506200096660201b60201c565b50505050565b6200094c8282604051602401620008c392919062000da7565b6040516020818303038152906040527f4b5c4277000000000000000000000000000000000000000000000000000000007bffffffffffffffffffffffffffffffffffffffffffffffffffffffff19166020820180517bffffffffffffffffffffffffffffffffffffffffffffffffffffffff83818316178352505050506200096660201b60201c565b5050565b6001816000016000828254019250508190555050565b60008151905060006a636f6e736f6c652e6c6f679050602083016000808483855afa5050505050565b8280546200099d906200101d565b90600052602060002090601f016020900481019282620009c1576000855562000a0d565b82601f10620009dc57805160ff191683800117855562000a0d565b8280016001018555821562000a0d579182015b8281111562000a0c578251825591602001919060010190620009ef565b5b50905062000a1c919062000a20565b5090565b5b8082111562000a3b57600081600090555060010162000a21565b5090565b600062000a5662000a508462000ed3565b62000e9f565b9050808382526020820190508260005b8581101562000a9a578151850162000a7f888262000bb8565b84526020840193506020830192505060018101905062000a66565b5050509392505050565b600062000abb62000ab58462000f02565b62000e9f565b9050808382526020820190508285602086028201111562000adb57600080fd5b60005b8581101562000b0f578162000af4888262000be5565b84526020840193506020830192505060018101905062000ade565b5050509392505050565b600062000b3062000b2a8462000f31565b62000e9f565b90508281526020810184848401111562000b4957600080fd5b62000b5684828562000fe7565b509392505050565b600082601f83011262000b7057600080fd5b815162000b8284826020860162000a3f565b91505092915050565b600082601f83011262000b9d57600080fd5b815162000baf84826020860162000aa4565b91505092915050565b600082601f83011262000bca57600080fd5b815162000bdc84826020860162000b19565b91505092915050565b60008151905062000bf681620010f1565b92915050565b600080600080600080600080610100898b03121562000c1a57600080fd5b600089015167ffffffffffffffff81111562000c3557600080fd5b62000c438b828c0162000b5e565b985050602089015167ffffffffffffffff81111562000c6157600080fd5b62000c6f8b828c0162000b5e565b975050604089015167ffffffffffffffff81111562000c8d57600080fd5b62000c9b8b828c0162000b8b565b965050606089015167ffffffffffffffff81111562000cb957600080fd5b62000cc78b828c0162000b8b565b955050608089015167ffffffffffffffff81111562000ce557600080fd5b62000cf38b828c0162000bb8565b94505060a089015167ffffffffffffffff81111562000d1157600080fd5b62000d1f8b828c0162000bb8565b93505060c062000d328b828c0162000be5565b92505060e062000d458b828c0162000be5565b9150509295985092959890939650565b600062000d628262000f64565b62000d6e818562000f6f565b935062000d8081856020860162000fe7565b62000d8b81620010e0565b840191505092915050565b62000da18162000fdd565b82525050565b6000604082019050818103600083015262000dc3818562000d55565b9050818103602083015262000dd9818462000d55565b90509392505050565b6000608082019050818103600083015262000dfe818762000d55565b9050818103602083015262000e14818662000d55565b905062000e25604083018562000d96565b818103606083015262000e39818462000d55565b905095945050505050565b6000608082019050818103600083015262000e60818762000d55565b9050818103602083015262000e76818662000d55565b905062000e87604083018562000d96565b62000e96606083018462000d96565b95945050505050565b6000604051905081810181811067ffffffffffffffff8211171562000ec95762000ec8620010b1565b5b8060405250919050565b600067ffffffffffffffff82111562000ef15762000ef0620010b1565b5b602082029050602081019050919050565b600067ffffffffffffffff82111562000f205762000f1f620010b1565b5b602082029050602081019050919050565b600067ffffffffffffffff82111562000f4f5762000f4e620010b1565b5b601f19601f8301169050602081019050919050565b600081519050919050565b600082825260208201905092915050565b600062000f8d8262000fdd565b915062000f9a8362000fdd565b9250827fffffffffffffffffffffffffffffffffffffffffffffffffffffffffffffffff0382111562000fd25762000fd162001053565b5b828201905092915050565b6000819050919050565b60005b838110156200100757808201518184015260208101905062000fea565b8381111562001017576000848401525b50505050565b600060028204905060018216806200103657607f821691505b602082108114156200104d576200104c62001082565b5b50919050565b7f4e487b7100000000000000000000000000000000000000000000000000000000600052601160045260246000fd5b7f4e487b7100000000000000000000000000000000000000000000000000000000600052602260045260246000fd5b7f4e487b7100000000000000000000000000000000000000000000000000000000600052604160045260246000fd5b6000601f19601f8301169050919050565b620010fc8162000fdd565b81146200110857600080fd5b50565b614bc1806200111b6000396000f3fe6080604052600436106101355760003560e01c806395d89b41116100ab578063b953084e1161006f578063b953084e14610434578063c87b56dd1461045f578063c8cf27f41461049c578063d4f24c5b146104c7578063e985e9c5146104de578063f8b81ef71461051b57610135565b806395d89b411461034657806398da4c9514610371578063a22cb465146103b3578063a9c32679146103dc578063b88d4fde1461040b57610135565b806323b872dd116100fd57806323b872dd1461023357806342842e0e1461025c5780635bc75e05146102855780636352211e1461028f57806370a08231146102cc5780637df124a11461030957610135565b806301ffc9a71461013a5780630665f9611461017757806306fdde03146101a2578063081812fc146101cd578063095ea7b31461020a575b600080fd5b34801561014657600080fd5b50610161600480360381019061015c919061331e565b610544565b60405161016e9190614124565b60405180910390f35b34801561018357600080fd5b5061018c610626565b6040516101999190614534565b60405180910390f35b3480156101ae57600080fd5b506101b7610782565b6040516101c4919061413f565b60405180910390f35b3480156101d957600080fd5b506101f460048036038101906101ef9190613370565b610814565b6040516102019190614064565b60405180910390f35b34801561021657600080fd5b50610231600480360381019061022c91906132e2565b610899565b005b34801561023f57600080fd5b5061025a600480360381019061025591906131dc565b6109b1565b005b34801561026857600080fd5b50610283600480360381019061027e91906131dc565b610a11565b005b61028d610a31565b005b34801561029b57600080fd5b506102b660048036038101906102b19190613370565b610ba7565b6040516102c39190614064565b60405180910390f35b3480156102d857600080fd5b506102f360048036038101906102ee9190613177565b610c59565b6040516103009190614578565b60405180910390f35b34801561031557600080fd5b50610330600480360381019061032b9190613177565b610d11565b60405161033d9190614578565b60405180910390f35b34801561035257600080fd5b5061035b610d29565b604051610368919061413f565b60405180910390f35b34801561037d57600080fd5b5061039860048036038101906103939190613370565b610dbb565b6040516103aa96959493929190614593565b60405180910390f35b3480156103bf57600080fd5b506103da60048036038101906103d591906132a6565b610f07565b005b3480156103e857600080fd5b506103f1611088565b604051610402959493929190614245565b60405180910390f35b34801561041757600080fd5b50610432600480360381019061042d919061322b565b6111bc565b005b34801561044057600080fd5b5061044961121e565b6040516104569190614102565b60405180910390f35b34801561046b57600080fd5b5061048660048036038101906104819190613370565b6113c9565b604051610493919061413f565b60405180910390f35b3480156104a857600080fd5b506104b16115e4565b6040516104be9190614556565b60405180910390f35b3480156104d357600080fd5b506104dc6117bc565b005b3480156104ea57600080fd5b50610505600480360381019061050091906131a0565b611b20565b6040516105129190614124565b60405180910390f35b34801561052757600080fd5b50610542600480360381019061053d9190613370565b611bb4565b005b60007f80ac58cd000000000000000000000000000000000000000000000000000000007bffffffffffffffffffffffffffffffffffffffffffffffffffffffff1916827bffffffffffffffffffffffffffffffffffffffffffffffffffffffff1916148061060f57507f5b5e139f000000000000000000000000000000000000000000000000000000007bffffffffffffffffffffffffffffffffffffffffffffffffffffffff1916827bffffffffffffffffffffffffffffffffffffffffffffffffffffffff1916145b8061061f575061061e8261219e565b5b9050919050565b61062e612f9e565b600a6040518060a001604052908160008201805461064b906148e4565b80601f0160208091040260200160405190810160405280929190818152602001828054610677906148e4565b80156106c45780601f10610699576101008083540402835291602001916106c4565b820191906000526020600020905b8154815290600101906020018083116106a757829003601f168201915b505050505081526020016001820180546106dd906148e4565b80601f0160208091040260200160405190810160405280929190818152602001828054610709906148e4565b80156107565780601f1061072b57610100808354040283529160200191610756565b820191906000526020600020905b81548152906001019060200180831161073957829003601f168201915b505050505081526020016002820154815260200160038201548152602001600482015481525050905090565b606060008054610791906148e4565b80601f01602080910402602001604051908101604052809291908181526020018280546107bd906148e4565b801561080a5780601f106107df5761010080835404028352916020019161080a565b820191906000526020600020905b8154815290600101906020018083116107ed57829003601f168201915b5050505050905090565b600061081f82612208565b61085e576040517f08c379a0000000000000000000000000000000000000000000000000000000008152600401610855906144b4565b60405180910390fd5b6004600083815260200190815260200160002060009054906101000a900473ffffffffffffffffffffffffffffffffffffffff169050919050565b60006108a482610ba7565b90508073ffffffffffffffffffffffffffffffffffffffff168373ffffffffffffffffffffffffffffffffffffffff161415610915576040517f08c379a000000000000000000000000000000000000000000000000000000000815260040161090c906144f4565b60405180910390fd5b8073ffffffffffffffffffffffffffffffffffffffff16610934612274565b73ffffffffffffffffffffffffffffffffffffffff16148061096357506109628161095d612274565b611b20565b5b6109a2576040517f08c379a0000000000000000000000000000000000000000000000000000000008152600401610999906143f4565b60405180910390fd5b6109ac838361227c565b505050565b6109c26109bc612274565b82612335565b610a01576040517f08c379a00000000000000000000000000000000000000000000000000000000081526004016109f890614514565b60405180910390fd5b610a0c838383612413565b505050565b610a2c838383604051806020016040528060008152506111bc565b505050565b6000600960003373ffffffffffffffffffffffffffffffffffffffff1673ffffffffffffffffffffffffffffffffffffffff16815260200190815260200160002054905060006008600083815260200190815260200160002090506000816003015414610ad3576040517f08c379a0000000000000000000000000000000000000000000000000000000008152600401610aca90614414565b60405180910390fd5b6611c37937e080003414610b1c576040517f08c379a0000000000000000000000000000000000000000000000000000000008152600401610b1390614314565b60405180910390fd5b80600401548160030181905550610b686040518060400160405280601981526020017f6e6674506c61796572546f6b656e2025732072657669766564000000000000008152508361266f565b7f2ef9deb97512c1c0a10cd6a8ec8a28581958abf30841ec9a783081a39f49ba098160030154604051610b9b9190614578565b60405180910390a15050565b6000806002600084815260200190815260200160002060009054906101000a900473ffffffffffffffffffffffffffffffffffffffff169050600073ffffffffffffffffffffffffffffffffffffffff168173ffffffffffffffffffffffffffffffffffffffff161415610c50576040517f08c379a0000000000000000000000000000000000000000000000000000000008152600401610c4790614454565b60405180910390fd5b80915050919050565b60008073ffffffffffffffffffffffffffffffffffffffff168273ffffffffffffffffffffffffffffffffffffffff161415610cca576040517f08c379a0000000000000000000000000000000000000000000000000000000008152600401610cc190614434565b60405180910390fd5b600360008373ffffffffffffffffffffffffffffffffffffffff1673ffffffffffffffffffffffffffffffffffffffff168152602001908152602001600020549050919050565b60096020528060005260406000206000915090505481565b606060018054610d38906148e4565b80601f0160208091040260200160405190810160405280929190818152602001828054610d64906148e4565b8015610db15780601f10610d8657610100808354040283529160200191610db1565b820191906000526020600020905b815481529060010190602001808311610d9457829003601f168201915b5050505050905090565b6008602052806000526040600020600091509050806000015490806001018054610de4906148e4565b80601f0160208091040260200160405190810160405280929190818152602001828054610e10906148e4565b8015610e5d5780601f10610e3257610100808354040283529160200191610e5d565b820191906000526020600020905b815481529060010190602001808311610e4057829003601f168201915b505050505090806002018054610e72906148e4565b80601f0160208091040260200160405190810160405280929190818152602001828054610e9e906148e4565b8015610eeb5780601f10610ec057610100808354040283529160200191610eeb565b820191906000526020600020905b815481529060010190602001808311610ece57829003601f168201915b5050505050908060030154908060040154908060050154905086565b610f0f612274565b73ffffffffffffffffffffffffffffffffffffffff168273ffffffffffffffffffffffffffffffffffffffff161415610f7d576040517f08c379a0000000000000000000000000000000000000000000000000000000008152600401610f74906143b4565b60405180910390fd5b8060056000610f8a612274565b73ffffffffffffffffffffffffffffffffffffffff1673ffffffffffffffffffffffffffffffffffffffff16815260200190815260200160002060008473ffffffffffffffffffffffffffffffffffffffff1673ffffffffffffffffffffffffffffffffffffffff16815260200190815260200160002060006101000a81548160ff0219169083151502179055508173ffffffffffffffffffffffffffffffffffffffff16611037612274565b73ffffffffffffffffffffffffffffffffffffffff167f17307eab39ab6107e8899845ad3d59bd9653f200f220920489ca2b5937696c318360405161107c9190614124565b60405180910390a35050565b600a806000018054611099906148e4565b80601f01602080910402602001604051908101604052809291908181526020018280546110c5906148e4565b80156111125780601f106110e757610100808354040283529160200191611112565b820191906000526020600020905b8154815290600101906020018083116110f557829003601f168201915b505050505090806001018054611127906148e4565b80601f0160208091040260200160405190810160405280929190818152602001828054611153906148e4565b80156111a05780601f10611175576101008083540402835291602001916111a0565b820191906000526020600020905b81548152906001019060200180831161118357829003601f168201915b5050505050908060020154908060030154908060040154905085565b6111cd6111c7612274565b83612335565b61120c576040517f08c379a000000000000000000000000000000000000000000000000000000000815260040161120390614514565b60405180910390fd5b6112188484848461270b565b50505050565b60606007805480602002602001604051908101604052809291908181526020016000905b828210156113c057838290600052602060002090600602016040518060c00160405290816000820154815260200160018201805461127f906148e4565b80601f01602080910402602001604051908101604052809291908181526020018280546112ab906148e4565b80156112f85780601f106112cd576101008083540402835291602001916112f8565b820191906000526020600020905b8154815290600101906020018083116112db57829003601f168201915b50505050508152602001600282018054611311906148e4565b80601f016020809104026020016040519081016040528092919081815260200182805461133d906148e4565b801561138a5780601f1061135f5761010080835404028352916020019161138a565b820191906000526020600020905b81548152906001019060200180831161136d57829003601f168201915b50505050508152602001600382015481526020016004820154815260200160058201548152505081526020019060010190611242565b50505050905090565b60606000600860008481526020019081526020016000206040518060c001604052908160008201548152602001600182018054611405906148e4565b80601f0160208091040260200160405190810160405280929190818152602001828054611431906148e4565b801561147e5780601f106114535761010080835404028352916020019161147e565b820191906000526020600020905b81548152906001019060200180831161146157829003601f168201915b50505050508152602001600282018054611497906148e4565b80601f01602080910402602001604051908101604052809291908181526020018280546114c3906148e4565b80156115105780601f106114e557610100808354040283529160200191611510565b820191906000526020600020905b8154815290600101906020018083116114f357829003601f168201915b505050505081526020016003820154815260200160048201548152602001600582015481525050905060006115488260600151612767565b905060006115598360800151612767565b9050600061156a8460a00151612767565b905060006115b0856020015161157f89612767565b876040015187878760405160200161159c96959493929190613f9d565b604051602081830303815290604052612914565b90506000816040516020016115c59190614042565b6040516020818303038152906040529050809650505050505050919050565b6115ec612fcd565b6000600960003373ffffffffffffffffffffffffffffffffffffffff1673ffffffffffffffffffffffffffffffffffffffff16815260200190815260200160002054905060008111156117ab57600860008281526020019081526020016000206040518060c001604052908160008201548152602001600182018054611671906148e4565b80601f016020809104026020016040519081016040528092919081815260200182805461169d906148e4565b80156116ea5780601f106116bf576101008083540402835291602001916116ea565b820191906000526020600020905b8154815290600101906020018083116116cd57829003601f168201915b50505050508152602001600282018054611703906148e4565b80601f016020809104026020016040519081016040528092919081815260200182805461172f906148e4565b801561177c5780601f106117515761010080835404028352916020019161177c565b820191906000526020600020905b81548152906001019060200180831161175f57829003601f168201915b5050505050815260200160038201548152602001600482015481526020016005820154815250509150506117b9565b6117b3612fcd565b80925050505b90565b6000600960003373ffffffffffffffffffffffffffffffffffffffff1673ffffffffffffffffffffffffffffffffffffffff16815260200190815260200160002054905060006008600083815260200190815260200160002090506118cf6040518060600160405280603c8152602001614b50603c9139826001018054611842906148e4565b80601f016020809104026020016040519081016040528092919081815260200182805461186e906148e4565b80156118bb5780601f10611890576101008083540402835291602001916118bb565b820191906000526020600020905b81548152906001019060200180831161189e57829003601f168201915b50505050508360030154846005015461204a565b6119a76040518060400160405280601b81526020017f426f73732025732068617320257320485020616e642025732041440000000000815250600a6000018054611918906148e4565b80601f0160208091040260200160405190810160405280929190818152602001828054611944906148e4565b80156119915780601f1061196657610100808354040283529160200191611991565b820191906000526020600020905b81548152906001019060200180831161197457829003601f168201915b5050505050600a60020154600a6004015461204a565b60008160030154116119ee576040517f08c379a00000000000000000000000000000000000000000000000000000000081526004016119e590614474565b60405180910390fd5b6000600a6002015411611a36576040517f08c379a0000000000000000000000000000000000000000000000000000000008152600401611a2d90614354565b60405180910390fd5b8060050154600a600201541015611a57576000600a60020181905550611a76565b8060050154600a60020154611a6c91906147fa565b600a600201819055505b600a6004015481600301541015611a965760008160030181905550611ab4565b600a600401548160030154611aab91906147fa565b81600301819055505b611ada604051806060016040528060288152602001614afa60289139826003015461266f565b7f838ab28464562786a6c4ab2311964b82fa60bd9b14aa7e856af1f3f18d41a414600a600201548260030154604051611b14929190614602565b60405180910390a15050565b6000600560008473ffffffffffffffffffffffffffffffffffffffff1673ffffffffffffffffffffffffffffffffffffffff16815260200190815260200160002060008373ffffffffffffffffffffffffffffffffffffffff1673ffffffffffffffffffffffffffffffffffffffff16815260200190815260200160002060009054906101000a900460ff16905092915050565b6000611bc06006612ad2565b9050611bcc3382612ae0565b6040518060c0016040528083815260200160078481548110611c17577f4e487b7100000000000000000000000000000000000000000000000000000000600052603260045260246000fd5b90600052602060002090600602016001018054611c33906148e4565b80601f0160208091040260200160405190810160405280929190818152602001828054611c5f906148e4565b8015611cac5780601f10611c8157610100808354040283529160200191611cac565b820191906000526020600020905b815481529060010190602001808311611c8f57829003601f168201915b5050505050815260200160078481548110611cf0577f4e487b7100000000000000000000000000000000000000000000000000000000600052603260045260246000fd5b90600052602060002090600602016002018054611d0c906148e4565b80601f0160208091040260200160405190810160405280929190818152602001828054611d38906148e4565b8015611d855780601f10611d5a57610100808354040283529160200191611d85565b820191906000526020600020905b815481529060010190602001808311611d6857829003601f168201915b5050505050815260200160078481548110611dc9577f4e487b7100000000000000000000000000000000000000000000000000000000600052603260045260246000fd5b906000526020600020906006020160030154815260200160078481548110611e1a577f4e487b7100000000000000000000000000000000000000000000000000000000600052603260045260246000fd5b906000526020600020906006020160030154815260200160078481548110611e6b577f4e487b7100000000000000000000000000000000000000000000000000000000600052603260045260246000fd5b90600052602060002090600602016005015481525060086000838152602001908152602001600020600082015181600001556020820151816001019080519060200190611eb9929190613003565b506040820151816002019080519060200190611ed6929190613003565b50606082015181600301556080820151816004015560a08201518160050155905050611f1b6040518060600160405280602e8152602001614b22602e91398284612afe565b80600960003373ffffffffffffffffffffffffffffffffffffffff1673ffffffffffffffffffffffffffffffffffffffff16815260200190815260200160002081905550611f696006612188565b7f4bc303fd457a97b4691b9af582ce71868a3d258638c8d4f8c60988a0f0bfb8cd338284604051611f9c939291906140cb565b60405180910390a15050565b61204484848484604051602401611fc29493929190614198565b6040516020818303038152906040527f8d142cdd000000000000000000000000000000000000000000000000000000007bffffffffffffffffffffffffffffffffffffffffffffffffffffffff19166020820180517bffffffffffffffffffffffffffffffffffffffffffffffffffffffff8381831617835250505050612b9d565b50505050565b6120e68484848460405160240161206494939291906141f2565b6040516020818303038152906040527fd5cf17d0000000000000000000000000000000000000000000000000000000007bffffffffffffffffffffffffffffffffffffffffffffffffffffffff19166020820180517bffffffffffffffffffffffffffffffffffffffffffffffffffffffff8381831617835250505050612b9d565b50505050565b6121848282604051602401612102929190614161565b6040516020818303038152906040527f4b5c4277000000000000000000000000000000000000000000000000000000007bffffffffffffffffffffffffffffffffffffffffffffffffffffffff19166020820180517bffffffffffffffffffffffffffffffffffffffffffffffffffffffff8381831617835250505050612b9d565b5050565b6001816000016000828254019250508190555050565b60007f01ffc9a7000000000000000000000000000000000000000000000000000000007bffffffffffffffffffffffffffffffffffffffffffffffffffffffff1916827bffffffffffffffffffffffffffffffffffffffffffffffffffffffff1916149050919050565b60008073ffffffffffffffffffffffffffffffffffffffff166002600084815260200190815260200160002060009054906101000a900473ffffffffffffffffffffffffffffffffffffffff1673ffffffffffffffffffffffffffffffffffffffff1614159050919050565b600033905090565b816004600083815260200190815260200160002060006101000a81548173ffffffffffffffffffffffffffffffffffffffff021916908373ffffffffffffffffffffffffffffffffffffffff160217905550808273ffffffffffffffffffffffffffffffffffffffff166122ef83610ba7565b73ffffffffffffffffffffffffffffffffffffffff167f8c5be1e5ebec7d5bd14f71427d1e84f3dd0314c0f7b2291e5b200ac8c7c3b92560405160405180910390a45050565b600061234082612208565b61237f576040517f08c379a0000000000000000000000000000000000000000000000000000000008152600401612376906143d4565b60405180910390fd5b600061238a83610ba7565b90508073ffffffffffffffffffffffffffffffffffffffff168473ffffffffffffffffffffffffffffffffffffffff1614806123f957508373ffffffffffffffffffffffffffffffffffffffff166123e184610814565b73ffffffffffffffffffffffffffffffffffffffff16145b8061240a57506124098185611b20565b5b91505092915050565b8273ffffffffffffffffffffffffffffffffffffffff1661243382610ba7565b73ffffffffffffffffffffffffffffffffffffffff1614612489576040517f08c379a0000000000000000000000000000000000000000000000000000000008152600401612480906144d4565b60405180910390fd5b600073ffffffffffffffffffffffffffffffffffffffff168273ffffffffffffffffffffffffffffffffffffffff1614156124f9576040517f08c379a00000000000000000000000000000000000000000000000000000000081526004016124f090614394565b60405180910390fd5b612504838383612bc6565b61250f60008261227c565b6001600360008573ffffffffffffffffffffffffffffffffffffffff1673ffffffffffffffffffffffffffffffffffffffff168152602001908152602001600020600082825461255f91906147fa565b925050819055506001600360008473ffffffffffffffffffffffffffffffffffffffff1673ffffffffffffffffffffffffffffffffffffffff16815260200190815260200160002060008282546125b69190614719565b92505081905550816002600083815260200190815260200160002060006101000a81548173ffffffffffffffffffffffffffffffffffffffff021916908373ffffffffffffffffffffffffffffffffffffffff160217905550808273ffffffffffffffffffffffffffffffffffffffff168473ffffffffffffffffffffffffffffffffffffffff167fddf252ad1be2c89b69c2b068fc378daa952ba7f163c4a11628f55a4df523b3ef60405160405180910390a4505050565b61270782826040516024016126859291906142a6565b6040516020818303038152906040527f9710a9d0000000000000000000000000000000000000000000000000000000007bffffffffffffffffffffffffffffffffffffffffffffffffffffffff19166020820180517bffffffffffffffffffffffffffffffffffffffffffffffffffffffff8381831617835250505050612b9d565b5050565b612716848484612413565b61272284848484612bcb565b612761576040517f08c379a000000000000000000000000000000000000000000000000000000000815260040161275890614334565b60405180910390fd5b50505050565b606060008214156127af576040518060400160405280600181526020017f3000000000000000000000000000000000000000000000000000000000000000815250905061290f565b600082905060005b600082146127e15780806127ca90614916565b915050600a826127da919061476f565b91506127b7565b60008167ffffffffffffffff811115612823577f4e487b7100000000000000000000000000000000000000000000000000000000600052604160045260246000fd5b6040519080825280601f01601f1916602001820160405280156128555781602001600182028036833780820191505090505b5090505b600085146129085760018261286e91906147fa565b9150600a8561287d919061495f565b60306128899190614719565b60f81b8183815181106128c5577f4e487b7100000000000000000000000000000000000000000000000000000000600052603260045260246000fd5b60200101907effffffffffffffffffffffffffffffffffffffffffffffffffffffffffffff1916908160001a905350600a85612901919061476f565b9450612859565b8093505050505b919050565b6060600082519050600081141561293d5760405180602001604052806000815250915050612acd565b6000600360028361294e9190614719565b612958919061476f565b600461296491906147a0565b905060006020826129759190614719565b67ffffffffffffffff8111156129b4577f4e487b7100000000000000000000000000000000000000000000000000000000600052604160045260246000fd5b6040519080825280601f01601f1916602001820160405280156129e65781602001600182028036833780820191505090505b5090506000604051806060016040528060408152602001614aba604091399050600181016020830160005b86811015612a8a5760038101905062ffffff818a015116603f8160121c168401518060081b905060ff603f83600c1c1686015116810190508060081b905060ff603f8360061c1686015116810190508060081b905060ff603f831686015116810190508060e01b90508084526004840193505050612a11565b506003860660018114612aa45760028114612ab457612abf565b613d3d60f01b6002830352612abf565b603d60f81b60018303525b508484525050819450505050505b919050565b600081600001549050919050565b612afa828260405180602001604052806000815250612d62565b5050565b612b98838383604051602401612b16939291906142d6565b6040516020818303038152906040527f969cdd03000000000000000000000000000000000000000000000000000000007bffffffffffffffffffffffffffffffffffffffffffffffffffffffff19166020820180517bffffffffffffffffffffffffffffffffffffffffffffffffffffffff8381831617835250505050612b9d565b505050565b60008151905060006a636f6e736f6c652e6c6f679050602083016000808483855afa5050505050565b505050565b6000612bec8473ffffffffffffffffffffffffffffffffffffffff16612dbd565b15612d55578373ffffffffffffffffffffffffffffffffffffffff1663150b7a02612c15612274565b8786866040518563ffffffff1660e01b8152600401612c37949392919061407f565b602060405180830381600087803b158015612c5157600080fd5b505af1925050508015612c8257506040513d601f19601f82011682018060405250810190612c7f9190613347565b60015b612d05573d8060008114612cb2576040519150601f19603f3d011682016040523d82523d6000602084013e612cb7565b606091505b50600081511415612cfd576040517f08c379a0000000000000000000000000000000000000000000000000000000008152600401612cf490614334565b60405180910390fd5b805181602001fd5b63150b7a0260e01b7bffffffffffffffffffffffffffffffffffffffffffffffffffffffff1916817bffffffffffffffffffffffffffffffffffffffffffffffffffffffff191614915050612d5a565b600190505b949350505050565b612d6c8383612dd0565b612d796000848484612bcb565b612db8576040517f08c379a0000000000000000000000000000000000000000000000000000000008152600401612daf90614334565b60405180910390fd5b505050565b600080823b905060008111915050919050565b600073ffffffffffffffffffffffffffffffffffffffff168273ffffffffffffffffffffffffffffffffffffffff161415612e40576040517f08c379a0000000000000000000000000000000000000000000000000000000008152600401612e3790614494565b60405180910390fd5b612e4981612208565b15612e89576040517f08c379a0000000000000000000000000000000000000000000000000000000008152600401612e8090614374565b60405180910390fd5b612e9560008383612bc6565b6001600360008473ffffffffffffffffffffffffffffffffffffffff1673ffffffffffffffffffffffffffffffffffffffff1681526020019081526020016000206000828254612ee59190614719565b92505081905550816002600083815260200190815260200160002060006101000a81548173ffffffffffffffffffffffffffffffffffffffff021916908373ffffffffffffffffffffffffffffffffffffffff160217905550808273ffffffffffffffffffffffffffffffffffffffff16600073ffffffffffffffffffffffffffffffffffffffff167fddf252ad1be2c89b69c2b068fc378daa952ba7f163c4a11628f55a4df523b3ef60405160405180910390a45050565b6040518060a0016040528060608152602001606081526020016000815260200160008152602001600081525090565b6040518060c001604052806000815260200160608152602001606081526020016000815260200160008152602001600081525090565b82805461300f906148e4565b90600052602060002090601f0160209004810192826130315760008555613078565b82601f1061304a57805160ff1916838001178555613078565b82800160010185558215613078579182015b8281111561307757825182559160200191906001019061305c565b5b5090506130859190613089565b5090565b5b808211156130a257600081600090555060010161308a565b5090565b60006130b96130b48461465c565b61462b565b9050828152602081018484840111156130d157600080fd5b6130dc8482856148a2565b509392505050565b6000813590506130f381614a5d565b92915050565b60008135905061310881614a74565b92915050565b60008135905061311d81614a8b565b92915050565b60008151905061313281614a8b565b92915050565b600082601f83011261314957600080fd5b81356131598482602086016130a6565b91505092915050565b60008135905061317181614aa2565b92915050565b60006020828403121561318957600080fd5b6000613197848285016130e4565b91505092915050565b600080604083850312156131b357600080fd5b60006131c1858286016130e4565b92505060206131d2858286016130e4565b9150509250929050565b6000806000606084860312156131f157600080fd5b60006131ff868287016130e4565b9350506020613210868287016130e4565b925050604061322186828701613162565b9150509250925092565b6000806000806080858703121561324157600080fd5b600061324f878288016130e4565b9450506020613260878288016130e4565b935050604061327187828801613162565b925050606085013567ffffffffffffffff81111561328e57600080fd5b61329a87828801613138565b91505092959194509250565b600080604083850312156132b957600080fd5b60006132c7858286016130e4565b92505060206132d8858286016130f9565b9150509250929050565b600080604083850312156132f557600080fd5b6000613303858286016130e4565b925050602061331485828601613162565b9150509250929050565b60006020828403121561333057600080fd5b600061333e8482850161310e565b91505092915050565b60006020828403121561335957600080fd5b600061336784828501613123565b91505092915050565b60006020828403121561338257600080fd5b600061339084828501613162565b91505092915050565b60006133a58383613e5f565b905092915050565b6133b68161482e565b82525050565b60006133c78261469c565b6133d181856146ca565b9350836020820285016133e38561468c565b8060005b8581101561341f57848403895281516134008582613399565b945061340b836146bd565b925060208a019950506001810190506133e7565b50829750879550505050505092915050565b61343a81614840565b82525050565b600061344b826146a7565b61345581856146db565b93506134658185602086016148b1565b61346e81614a4c565b840191505092915050565b6000613484826146b2565b61348e81856146ec565b935061349e8185602086016148b1565b6134a781614a4c565b840191505092915050565b60006134bd826146b2565b6134c781856146fd565b93506134d78185602086016148b1565b6134e081614a4c565b840191505092915050565b60006134f6826146b2565b613500818561470e565b93506135108185602086016148b1565b80840191505092915050565b60006135296018836146fd565b91507f5265766976616c20636f737473202e30303520657468657200000000000000006000830152602082019050919050565b6000613569600b8361470e565b91507f202d2d204e465420233a200000000000000000000000000000000000000000006000830152600b82019050919050565b60006135a96032836146fd565b91507f4552433732313a207472616e7366657220746f206e6f6e20455243373231526560008301527f63656976657220696d706c656d656e74657200000000000000000000000000006020830152604082019050919050565b600061360f6028836146fd565b91507f4572726f723a20626f7373206d757374206861766520485020746f206174746160008301527f636b20626f73732e0000000000000000000000000000000000000000000000006020830152604082019050919050565b6000613675601c836146fd565b91507f4552433732313a20746f6b656e20616c7265616479206d696e746564000000006000830152602082019050919050565b60006136b5600e8361470e565b91507f2c20226d61785f76616c7565223a0000000000000000000000000000000000006000830152600e82019050919050565b60006136f56024836146fd565b91507f4552433732313a207472616e7366657220746f20746865207a65726f2061646460008301527f72657373000000000000000000000000000000000000000000000000000000006020830152604082019050919050565b600061375b6019836146fd565b91507f4552433732313a20617070726f766520746f2063616c6c6572000000000000006000830152602082019050919050565b600061379b602c836146fd565b91507f4552433732313a206f70657261746f7220717565727920666f72206e6f6e657860008301527f697374656e7420746f6b656e00000000000000000000000000000000000000006020830152604082019050919050565b60006138016038836146fd565b91507f4552433732313a20617070726f76652063616c6c6572206973206e6f74206f7760008301527f6e6572206e6f7220617070726f76656420666f7220616c6c00000000000000006020830152604082019050919050565b6000613867601d836146fd565b91507f4572726f723a20636861726163746572206d757374206265206465642e0000006000830152602082019050919050565b60006138a7602a836146fd565b91507f4552433732313a2062616c616e636520717565727920666f7220746865207a6560008301527f726f2061646472657373000000000000000000000000000000000000000000006020830152604082019050919050565b600061390d6029836146fd565b91507f4552433732313a206f776e657220717565727920666f72206e6f6e657869737460008301527f656e7420746f6b656e00000000000000000000000000000000000000000000006020830152604082019050919050565b6000613973602d836146fd565b91507f4572726f723a20636861726163746572206d757374206861766520485020746f60008301527f2061747461636b20626f73732e000000000000000000000000000000000000006020830152604082019050919050565b60006139d960048361470e565b91507f7d205d7d000000000000000000000000000000000000000000000000000000006000830152600482019050919050565b6000613a196020836146fd565b91507f4552433732313a206d696e7420746f20746865207a65726f20616464726573736000830152602082019050919050565b6000613a59602c836146fd565b91507f4552433732313a20617070726f76656420717565727920666f72206e6f6e657860008301527f697374656e7420746f6b656e00000000000000000000000000000000000000006020830152604082019050919050565b6000613abf6029836146fd565b91507f4552433732313a207472616e73666572206f6620746f6b656e2074686174206960008301527f73206e6f74206f776e00000000000000000000000000000000000000000000006020830152604082019050919050565b6000613b25600a8361470e565b91507f7b226e616d65223a2022000000000000000000000000000000000000000000006000830152600a82019050919050565b6000613b656021836146fd565b91507f4552433732313a20617070726f76616c20746f2063757272656e74206f776e6560008301527f72000000000000000000000000000000000000000000000000000000000000006020830152604082019050919050565b6000613bcb601d8361470e565b91507f646174613a6170706c69636174696f6e2f6a736f6e3b6261736536342c0000006000830152601d82019050919050565b6000613c0b60698361470e565b91507f222c20226465736372697074696f6e223a20225468697320697320616e204e4660008301527f542074686174206c6574732070656f706c6520706c617920696e20746865206760208301527f616d65204d657461766572736520536c6179657221222c2022696d616765223a60408301527f2022697066733a2f2f00000000000000000000000000000000000000000000006060830152606982019050919050565b6000613cbd6031836146fd565b91507f4552433732313a207472616e736665722063616c6c6572206973206e6f74206f60008301527f776e6572206e6f7220617070726f7665640000000000000000000000000000006020830152604082019050919050565b6000613d23603d8361470e565b91507f222c202261747472696275746573223a205b207b202274726169745f7479706560008301527f223a20224865616c746820506f696e7473222c202276616c7565223a200000006020830152603d82019050919050565b6000613d89602d8361470e565b91507f7d2c207b202274726169745f74797065223a202241747461636b2044616d616760008301527f65222c202276616c7565223a20000000000000000000000000000000000000006020830152602d82019050919050565b600060a0830160008301518482036000860152613dff8282613479565b91505060208301518482036020860152613e198282613479565b9150506040830151613e2e6040860182613f7f565b506060830151613e416060860182613f7f565b506080830151613e546080860182613f7f565b508091505092915050565b600060c083016000830151613e776000860182613f7f565b5060208301518482036020860152613e8f8282613479565b91505060408301518482036040860152613ea98282613479565b9150506060830151613ebe6060860182613f7f565b506080830151613ed16080860182613f7f565b5060a0830151613ee460a0860182613f7f565b508091505092915050565b600060c083016000830151613f076000860182613f7f565b5060208301518482036020860152613f1f8282613479565b91505060408301518482036040860152613f398282613479565b9150506060830151613f4e6060860182613f7f565b506080830151613f616080860182613f7f565b5060a0830151613f7460a0860182613f7f565b508091505092915050565b613f8881614898565b82525050565b613f9781614898565b82525050565b6000613fa882613b18565b9150613fb482896134eb565b9150613fbf8261355c565b9150613fcb82886134eb565b9150613fd682613bfe565b9150613fe282876134eb565b9150613fed82613d16565b9150613ff982866134eb565b9150614004826136a8565b915061401082856134eb565b915061401b82613d7c565b915061402782846134eb565b9150614032826139cc565b9150819050979650505050505050565b600061404d82613bbe565b915061405982846134eb565b915081905092915050565b600060208201905061407960008301846133ad565b92915050565b600060808201905061409460008301876133ad565b6140a160208301866133ad565b6140ae6040830185613f8e565b81810360608301526140c08184613440565b905095945050505050565b60006060820190506140e060008301866133ad565b6140ed6020830185613f8e565b6140fa6040830184613f8e565b949350505050565b6000602082019050818103600083015261411c81846133bc565b905092915050565b60006020820190506141396000830184613431565b92915050565b6000602082019050818103600083015261415981846134b2565b905092915050565b6000604082019050818103600083015261417b81856134b2565b9050818103602083015261418f81846134b2565b90509392505050565b600060808201905081810360008301526141b281876134b2565b905081810360208301526141c681866134b2565b90506141d56040830185613f8e565b81810360608301526141e781846134b2565b905095945050505050565b6000608082019050818103600083015261420c81876134b2565b9050818103602083015261422081866134b2565b905061422f6040830185613f8e565b61423c6060830184613f8e565b95945050505050565b600060a082019050818103600083015261425f81886134b2565b9050818103602083015261427381876134b2565b90506142826040830186613f8e565b61428f6060830185613f8e565b61429c6080830184613f8e565b9695505050505050565b600060408201905081810360008301526142c081856134b2565b90506142cf6020830184613f8e565b9392505050565b600060608201905081810360008301526142f081866134b2565b90506142ff6020830185613f8e565b61430c6040830184613f8e565b949350505050565b6000602082019050818103600083015261432d8161351c565b9050919050565b6000602082019050818103600083015261434d8161359c565b9050919050565b6000602082019050818103600083015261436d81613602565b9050919050565b6000602082019050818103600083015261438d81613668565b9050919050565b600060208201905081810360008301526143ad816136e8565b9050919050565b600060208201905081810360008301526143cd8161374e565b9050919050565b600060208201905081810360008301526143ed8161378e565b9050919050565b6000602082019050818103600083015261440d816137f4565b9050919050565b6000602082019050818103600083015261442d8161385a565b9050919050565b6000602082019050818103600083015261444d8161389a565b9050919050565b6000602082019050818103600083015261446d81613900565b9050919050565b6000602082019050818103600083015261448d81613966565b9050919050565b600060208201905081810360008301526144ad81613a0c565b9050919050565b600060208201905081810360008301526144cd81613a4c565b9050919050565b600060208201905081810360008301526144ed81613ab2565b9050919050565b6000602082019050818103600083015261450d81613b58565b9050919050565b6000602082019050818103600083015261452d81613cb0565b9050919050565b6000602082019050818103600083015261454e8184613de2565b905092915050565b600060208201905081810360008301526145708184613eef565b905092915050565b600060208201905061458d6000830184613f8e565b92915050565b600060c0820190506145a86000830189613f8e565b81810360208301526145ba81886134b2565b905081810360408301526145ce81876134b2565b90506145dd6060830186613f8e565b6145ea6080830185613f8e565b6145f760a0830184613f8e565b979650505050505050565b60006040820190506146176000830185613f8e565b6146246020830184613f8e565b9392505050565b6000604051905081810181811067ffffffffffffffff8211171561465257614651614a1d565b5b8060405250919050565b600067ffffffffffffffff82111561467757614676614a1d565b5b601f19601f8301169050602081019050919050565b6000819050602082019050919050565b600081519050919050565b600081519050919050565b600081519050919050565b6000602082019050919050565b600082825260208201905092915050565b600082825260208201905092915050565b600082825260208201905092915050565b600082825260208201905092915050565b600081905092915050565b600061472482614898565b915061472f83614898565b9250827fffffffffffffffffffffffffffffffffffffffffffffffffffffffffffffffff0382111561476457614763614990565b5b828201905092915050565b600061477a82614898565b915061478583614898565b925082614795576147946149bf565b5b828204905092915050565b60006147ab82614898565b91506147b683614898565b9250817fffffffffffffffffffffffffffffffffffffffffffffffffffffffffffffffff04831182151516156147ef576147ee614990565b5b828202905092915050565b600061480582614898565b915061481083614898565b92508282101561482357614822614990565b5b828203905092915050565b600061483982614878565b9050919050565b60008115159050919050565b60007fffffffff0000000000000000000000000000000000000000000000000000000082169050919050565b600073ffffffffffffffffffffffffffffffffffffffff82169050919050565b6000819050919050565b82818337600083830152505050565b60005b838110156148cf5780820151818401526020810190506148b4565b838111156148de576000848401525b50505050565b600060028204905060018216806148fc57607f821691505b602082108114156149105761490f6149ee565b5b50919050565b600061492182614898565b91507fffffffffffffffffffffffffffffffffffffffffffffffffffffffffffffffff82141561495457614953614990565b5b600182019050919050565b600061496a82614898565b915061497583614898565b925082614985576149846149bf565b5b828206905092915050565b7f4e487b7100000000000000000000000000000000000000000000000000000000600052601160045260246000fd5b7f4e487b7100000000000000000000000000000000000000000000000000000000600052601260045260246000fd5b7f4e487b7100000000000000000000000000000000000000000000000000000000600052602260045260246000fd5b7f4e487b7100000000000000000000000000000000000000000000000000000000600052604160045260246000fd5b6000601f19601f8301169050919050565b614a668161482e565b8114614a7157600080fd5b50565b614a7d81614840565b8114614a8857600080fd5b50565b614a948161484c565b8114614a9f57600080fd5b50565b614aab81614898565b8114614ab657600080fd5b5056fe4142434445464748494a4b4c4d4e4f505152535455565758595a6162636465666768696a6b6c6d6e6f707172737475767778797a303132333435363738392b2f426f73732061747461636b656420706c617965722e204e657720706c617965722068703a2025730a4d696e746564204e465420772f20746f6b656e496420257320616e6420636861726163746572496e6465782025730a506c6179657220772f206368617261637465722025732061626f757420746f2061747461636b2e2048617320257320485020616e64202573204144a26469706673582212208a44716d0372d107679c8a783036258786ea01ac4cee5fe0e480e0f3823b307064736f6c63430008000033446f6e6520696e697469616c697a696e6720626f737320257320772f2048502025732c20696d67202573446f6e6520696e697469616c697a696e6720257320772f2048502025732c20257320417461636b2044616d6167652c20",
  "linkReferences": {},
  "deployedLinkReferences": {}
}