{
  "_format": "hh-sol-artifact-1",
  "contractName": "MyEpicGame",
  "sourceName": "contracts/MyEpicGame.sol",
  "abi": [
    {
      "inputs": [
        {
          "internalType": "string[]",
          "name": "characterNames",
          "type": "string[]"
        },
        {
          "internalType": "string[]",
          "name": "characterImageURIs",
          "type": "string[]"
        },
        {
          "internalType": "uint256[]",
          "name": "characterHp",
          "type": "uint256[]"
        },
        {
          "internalType": "uint256[]",
          "name": "characterAttackDmg",
          "type": "uint256[]"
        },
        {
          "internalType": "string",
          "name": "bossName",
          "type": "string"
        },
        {
          "internalType": "string",
          "name": "bossImageURI",
          "type": "string"
        },
        {
          "internalType": "uint256",
          "name": "bossHp",
          "type": "uint256"
        },
        {
          "internalType": "uint256",
          "name": "bossAttackDamage",
          "type": "uint256"
        }
      ],
      "stateMutability": "nonpayable",
      "type": "constructor"
    },
    {
      "anonymous": false,
      "inputs": [
        {
          "indexed": true,
          "internalType": "address",
          "name": "owner",
          "type": "address"
        },
        {
          "indexed": true,
          "internalType": "address",
          "name": "approved",
          "type": "address"
        },
        {
          "indexed": true,
          "internalType": "uint256",
          "name": "tokenId",
          "type": "uint256"
        }
      ],
      "name": "Approval",
      "type": "event"
    },
    {
      "anonymous": false,
      "inputs": [
        {
          "indexed": true,
          "internalType": "address",
          "name": "owner",
          "type": "address"
        },
        {
          "indexed": true,
          "internalType": "address",
          "name": "operator",
          "type": "address"
        },
        {
          "indexed": false,
          "internalType": "bool",
          "name": "approved",
          "type": "bool"
        }
      ],
      "name": "ApprovalForAll",
      "type": "event"
    },
    {
      "anonymous": false,
      "inputs": [
        {
          "indexed": false,
          "internalType": "uint256",
          "name": "newBossHp",
          "type": "uint256"
        },
        {
          "indexed": false,
          "internalType": "uint256",
          "name": "newPlayerHp",
          "type": "uint256"
        }
      ],
      "name": "AttackComplete",
      "type": "event"
    },
    {
      "anonymous": false,
      "inputs": [
        {
          "indexed": false,
          "internalType": "address",
          "name": "sender",
          "type": "address"
        },
        {
          "indexed": false,
          "internalType": "uint256",
          "name": "tokenId",
          "type": "uint256"
        },
        {
          "indexed": false,
          "internalType": "uint256",
          "name": "characterIndex",
          "type": "uint256"
        }
      ],
      "name": "CharacterNFTMinted",
      "type": "event"
    },
    {
      "anonymous": false,
      "inputs": [
        {
          "indexed": false,
          "internalType": "uint256",
          "name": "newPlayerHP",
          "type": "uint256"
        }
      ],
      "name": "HealthBoosted",
      "type": "event"
    },
    {
      "anonymous": false,
      "inputs": [
        {
          "indexed": false,
          "internalType": "uint256",
          "name": "newPlayerHP",
          "type": "uint256"
        }
      ],
      "name": "PlayerRevived",
      "type": "event"
    },
    {
      "anonymous": false,
      "inputs": [
        {
          "indexed": true,
          "internalType": "address",
          "name": "from",
          "type": "address"
        },
        {
          "indexed": true,
          "internalType": "address",
          "name": "to",
          "type": "address"
        },
        {
          "indexed": true,
          "internalType": "uint256",
          "name": "tokenId",
          "type": "uint256"
        }
      ],
      "name": "Transfer",
      "type": "event"
    },
    {
      "inputs": [
        {
          "internalType": "address",
          "name": "to",
          "type": "address"
        },
        {
          "internalType": "uint256",
          "name": "tokenId",
          "type": "uint256"
        }
      ],
      "name": "approve",
      "outputs": [],
      "stateMutability": "nonpayable",
      "type": "function"
    },
    {
      "inputs": [],
      "name": "attackBoss",
      "outputs": [],
      "stateMutability": "nonpayable",
      "type": "function"
    },
    {
      "inputs": [
        {
          "internalType": "address",
          "name": "owner",
          "type": "address"
        }
      ],
      "name": "balanceOf",
      "outputs": [
        {
          "internalType": "uint256",
          "name": "",
          "type": "uint256"
        }
      ],
      "stateMutability": "view",
      "type": "function"
    },
    {
      "inputs": [],
      "name": "bigBoss",
      "outputs": [
        {
          "internalType": "string",
          "name": "name",
          "type": "string"
        },
        {
          "internalType": "string",
          "name": "imageURI",
          "type": "string"
        },
        {
          "internalType": "uint256",
          "name": "hp",
          "type": "uint256"
        },
        {
          "internalType": "uint256",
          "name": "maxHp",
          "type": "uint256"
        },
        {
          "internalType": "uint256",
          "name": "attackDamage",
          "type": "uint256"
        }
      ],
      "stateMutability": "view",
      "type": "function"
    },
    {
      "inputs": [],
      "name": "checkIfUserHasNFT",
      "outputs": [
        {
          "components": [
            {
              "internalType": "uint256",
              "name": "characterIndex",
              "type": "uint256"
            },
            {
              "internalType": "string",
              "name": "name",
              "type": "string"
            },
            {
              "internalType": "string",
              "name": "imageURI",
              "type": "string"
            },
            {
              "internalType": "uint256",
              "name": "hp",
              "type": "uint256"
            },
            {
              "internalType": "uint256",
              "name": "maxHp",
              "type": "uint256"
            },
            {
              "internalType": "uint256",
              "name": "attackDamage",
              "type": "uint256"
            }
          ],
          "internalType": "struct MyEpicGame.CharacterAttributes",
          "name": "",
          "type": "tuple"
        }
      ],
      "stateMutability": "view",
      "type": "function"
    },
    {
      "inputs": [],
      "name": "getAllDefaultCharacters",
      "outputs": [
        {
          "components": [
            {
              "internalType": "uint256",
              "name": "characterIndex",
              "type": "uint256"
            },
            {
              "internalType": "string",
              "name": "name",
              "type": "string"
            },
            {
              "internalType": "string",
              "name": "imageURI",
              "type": "string"
            },
            {
              "internalType": "uint256",
              "name": "hp",
              "type": "uint256"
            },
            {
              "internalType": "uint256",
              "name": "maxHp",
              "type": "uint256"
            },
            {
              "internalType": "uint256",
              "name": "attackDamage",
              "type": "uint256"
            }
          ],
          "internalType": "struct MyEpicGame.CharacterAttributes[]",
          "name": "",
          "type": "tuple[]"
        }
      ],
      "stateMutability": "view",
      "type": "function"
    },
    {
      "inputs": [
        {
          "internalType": "uint256",
          "name": "tokenId",
          "type": "uint256"
        }
      ],
      "name": "getApproved",
      "outputs": [
        {
          "internalType": "address",
          "name": "",
          "type": "address"
        }
      ],
      "stateMutability": "view",
      "type": "function"
    },
    {
      "inputs": [],
      "name": "getBigBoss",
      "outputs": [
        {
          "components": [
            {
              "internalType": "string",
              "name": "name",
              "type": "string"
            },
            {
              "internalType": "string",
              "name": "imageURI",
              "type": "string"
            },
            {
              "internalType": "uint256",
              "name": "hp",
              "type": "uint256"
            },
            {
              "internalType": "uint256",
              "name": "maxHp",
              "type": "uint256"
            },
            {
              "internalType": "uint256",
              "name": "attackDamage",
              "type": "uint256"
            }
          ],
          "internalType": "struct MyEpicGame.BigBoss",
          "name": "",
          "type": "tuple"
        }
      ],
      "stateMutability": "view",
      "type": "function"
    },
    {
      "inputs": [
        {
          "internalType": "address",
          "name": "owner",
          "type": "address"
        },
        {
          "internalType": "address",
          "name": "operator",
          "type": "address"
        }
      ],
      "name": "isApprovedForAll",
      "outputs": [
        {
          "internalType": "bool",
          "name": "",
          "type": "bool"
        }
      ],
      "stateMutability": "view",
      "type": "function"
    },
    {
      "inputs": [
        {
          "internalType": "uint256",
          "name": "_characterIndex",
          "type": "uint256"
        }
      ],
      "name": "mintCharacterNFT",
      "outputs": [],
      "stateMutability": "nonpayable",
      "type": "function"
    },
    {
      "inputs": [],
      "name": "name",
      "outputs": [
        {
          "internalType": "string",
          "name": "",
          "type": "string"
        }
      ],
      "stateMutability": "view",
      "type": "function"
    },
    {
      "inputs": [
        {
          "internalType": "uint256",
          "name": "",
          "type": "uint256"
        }
      ],
      "name": "nftHolderAttributes",
      "outputs": [
        {
          "internalType": "uint256",
          "name": "characterIndex",
          "type": "uint256"
        },
        {
          "internalType": "string",
          "name": "name",
          "type": "string"
        },
        {
          "internalType": "string",
          "name": "imageURI",
          "type": "string"
        },
        {
          "internalType": "uint256",
          "name": "hp",
          "type": "uint256"
        },
        {
          "internalType": "uint256",
          "name": "maxHp",
          "type": "uint256"
        },
        {
          "internalType": "uint256",
          "name": "attackDamage",
          "type": "uint256"
        }
      ],
      "stateMutability": "view",
      "type": "function"
    },
    {
      "inputs": [
        {
          "internalType": "address",
          "name": "",
          "type": "address"
        }
      ],
      "name": "nftHolders",
      "outputs": [
        {
          "internalType": "uint256",
          "name": "",
          "type": "uint256"
        }
      ],
      "stateMutability": "view",
      "type": "function"
    },
    {
      "inputs": [
        {
          "internalType": "uint256",
          "name": "tokenId",
          "type": "uint256"
        }
      ],
      "name": "ownerOf",
      "outputs": [
        {
          "internalType": "address",
          "name": "",
          "type": "address"
        }
      ],
      "stateMutability": "view",
      "type": "function"
    },
    {
      "inputs": [
        {
          "internalType": "uint256",
          "name": "amount",
          "type": "uint256"
        }
      ],
      "name": "purchaseHealth",
      "outputs": [],
      "stateMutability": "payable",
      "type": "function"
    },
    {
      "inputs": [],
      "name": "revivePlayerNFT",
      "outputs": [],
      "stateMutability": "payable",
      "type": "function"
    },
    {
      "inputs": [
        {
          "internalType": "address",
          "name": "from",
          "type": "address"
        },
        {
          "internalType": "address",
          "name": "to",
          "type": "address"
        },
        {
          "internalType": "uint256",
          "name": "tokenId",
          "type": "uint256"
        }
      ],
      "name": "safeTransferFrom",
      "outputs": [],
      "stateMutability": "nonpayable",
      "type": "function"
    },
    {
      "inputs": [
        {
          "internalType": "address",
          "name": "from",
          "type": "address"
        },
        {
          "internalType": "address",
          "name": "to",
          "type": "address"
        },
        {
          "internalType": "uint256",
          "name": "tokenId",
          "type": "uint256"
        },
        {
          "internalType": "bytes",
          "name": "_data",
          "type": "bytes"
        }
      ],
      "name": "safeTransferFrom",
      "outputs": [],
      "stateMutability": "nonpayable",
      "type": "function"
    },
    {
      "inputs": [
        {
          "internalType": "address",
          "name": "operator",
          "type": "address"
        },
        {
          "internalType": "bool",
          "name": "approved",
          "type": "bool"
        }
      ],
      "name": "setApprovalForAll",
      "outputs": [],
      "stateMutability": "nonpayable",
      "type": "function"
    },
    {
      "inputs": [
        {
          "internalType": "bytes4",
          "name": "interfaceId",
          "type": "bytes4"
        }
      ],
      "name": "supportsInterface",
      "outputs": [
        {
          "internalType": "bool",
          "name": "",
          "type": "bool"
        }
      ],
      "stateMutability": "view",
      "type": "function"
    },
    {
      "inputs": [],
      "name": "symbol",
      "outputs": [
        {
          "internalType": "string",
          "name": "",
          "type": "string"
        }
      ],
      "stateMutability": "view",
      "type": "function"
    },
    {
      "inputs": [
        {
          "internalType": "uint256",
          "name": "_tokenId",
          "type": "uint256"
        }
      ],
      "name": "tokenURI",
      "outputs": [
        {
          "internalType": "string",
          "name": "",
          "type": "string"
        }
      ],
      "stateMutability": "view",
      "type": "function"
    },
    {
      "inputs": [
        {
          "internalType": "address",
          "name": "from",
          "type": "address"
        },
        {
          "internalType": "address",
          "name": "to",
          "type": "address"
        },
        {
          "internalType": "uint256",
          "name": "tokenId",
          "type": "uint256"
        }
      ],
      "name": "transferFrom",
      "outputs": [],
      "stateMutability": "nonpayable",
      "type": "function"
    }
  ],
  "bytecode": "0x608060405266038d7ea4c680006006553480156200001c57600080fd5b50604051620063c4380380620063c4833981810160405281019062000042919062000c07565b6040518060400160405280600e81526020017f4865726f73206f6620416e696d750000000000000000000000000000000000008152506040518060400160405280600681526020017f414e494d555300000000000000000000000000000000000000000000000000008152508160009080519060200190620000c69291906200099a565b508060019080519060200190620000df9291906200099a565b5050506040518060a0016040528085815260200184815260200183815260200183815260200182815250600b6000820151816000019080519060200190620001299291906200099a565b506020820151816001019080519060200190620001489291906200099a565b50604082015181600201556060820151816003015560808201518160040155905050620002cb6040518060600160405280602a81526020016200636a602a9139600b60000180546200019a9062001028565b80601f0160208091040260200160405190810160405280929190818152602001828054620001c89062001028565b8015620002195780601f10620001ed5761010080835404028352916020019162000219565b820191906000526020600020905b815481529060010190602001808311620001fb57829003601f168201915b5050505050600b60020154600b6001018054620002369062001028565b80601f0160208091040260200160405190810160405280929190818152602001828054620002649062001028565b8015620002b55780601f106200028957610100808354040283529160200191620002b5565b820191906000526020600020905b8154815290600101906020018083116200029757829003601f168201915b50505050506200075d60201b620023d41760201c565b60005b8851811015620007375760086040518060c001604052808381526020018b848151811062000325577f4e487b7100000000000000000000000000000000000000000000000000000000600052603260045260246000fd5b602002602001015181526020018a84815181106200036c577f4e487b7100000000000000000000000000000000000000000000000000000000600052603260045260246000fd5b60200260200101518152602001898481518110620003b3577f4e487b7100000000000000000000000000000000000000000000000000000000600052603260045260246000fd5b60200260200101518152602001898481518110620003fa577f4e487b7100000000000000000000000000000000000000000000000000000000600052603260045260246000fd5b6020026020010151815260200188848151811062000441577f4e487b7100000000000000000000000000000000000000000000000000000000600052603260045260246000fd5b602002602001015181525090806001815401808255809150506001900390600052602060002090600602016000909190919091506000820151816000015560208201518160010190805190602001906200049d9291906200099a565b506040820151816002019080519060200190620004bc9291906200099a565b50606082015181600301556080820151816004015560a0820151816005015550506000600882815481106200051a577f4e487b7100000000000000000000000000000000000000000000000000000000600052603260045260246000fd5b90600052602060002090600602016040518060c0016040529081600082015481526020016001820180546200054f9062001028565b80601f01602080910402602001604051908101604052809291908181526020018280546200057d9062001028565b8015620005ce5780601f10620005a257610100808354040283529160200191620005ce565b820191906000526020600020905b815481529060010190602001808311620005b057829003601f168201915b50505050508152602001600282018054620005e99062001028565b80601f0160208091040260200160405190810160405280929190818152602001828054620006179062001028565b8015620006685780601f106200063c5761010080835404028352916020019162000668565b820191906000526020600020905b8154815290600101906020018083116200064a57829003601f168201915b5050505050815260200160038201548152602001600482015481526020016005820154815250509050620006cf6040518060600160405280603081526020016200639460309139826020015183606001518460a001516200080960201b620024761760201c565b6200071f6040518060400160405280600681526020017f696d6720257300000000000000000000000000000000000000000000000000008152508260400151620008b560201b620025181760201c565b506001816200072f919062000f8b565b9050620002ce565b506200074f60076200095b60201b620025b41760201c565b505050505050505062001116565b62000803848484846040516024016200077a949392919062000ded565b6040516020818303038152906040527f8d142cdd000000000000000000000000000000000000000000000000000000007bffffffffffffffffffffffffffffffffffffffffffffffffffffffff19166020820180517bffffffffffffffffffffffffffffffffffffffffffffffffffffffff83818316178352505050506200097160201b60201c565b50505050565b620008af8484848460405160240162000826949392919062000e4f565b6040516020818303038152906040527fd5cf17d0000000000000000000000000000000000000000000000000000000007bffffffffffffffffffffffffffffffffffffffffffffffffffffffff19166020820180517bffffffffffffffffffffffffffffffffffffffffffffffffffffffff83818316178352505050506200097160201b60201c565b50505050565b620009578282604051602401620008ce92919062000db2565b6040516020818303038152906040527f4b5c4277000000000000000000000000000000000000000000000000000000007bffffffffffffffffffffffffffffffffffffffffffffffffffffffff19166020820180517bffffffffffffffffffffffffffffffffffffffffffffffffffffffff83818316178352505050506200097160201b60201c565b5050565b6001816000016000828254019250508190555050565b60008151905060006a636f6e736f6c652e6c6f679050602083016000808483855afa5050505050565b828054620009a89062001028565b90600052602060002090601f016020900481019282620009cc576000855562000a18565b82601f10620009e757805160ff191683800117855562000a18565b8280016001018555821562000a18579182015b8281111562000a17578251825591602001919060010190620009fa565b5b50905062000a27919062000a2b565b5090565b5b8082111562000a4657600081600090555060010162000a2c565b5090565b600062000a6162000a5b8462000ede565b62000eaa565b9050808382526020820190508260005b8581101562000aa5578151850162000a8a888262000bc3565b84526020840193506020830192505060018101905062000a71565b5050509392505050565b600062000ac662000ac08462000f0d565b62000eaa565b9050808382526020820190508285602086028201111562000ae657600080fd5b60005b8581101562000b1a578162000aff888262000bf0565b84526020840193506020830192505060018101905062000ae9565b5050509392505050565b600062000b3b62000b358462000f3c565b62000eaa565b90508281526020810184848401111562000b5457600080fd5b62000b6184828562000ff2565b509392505050565b600082601f83011262000b7b57600080fd5b815162000b8d84826020860162000a4a565b91505092915050565b600082601f83011262000ba857600080fd5b815162000bba84826020860162000aaf565b91505092915050565b600082601f83011262000bd557600080fd5b815162000be784826020860162000b24565b91505092915050565b60008151905062000c0181620010fc565b92915050565b600080600080600080600080610100898b03121562000c2557600080fd5b600089015167ffffffffffffffff81111562000c4057600080fd5b62000c4e8b828c0162000b69565b985050602089015167ffffffffffffffff81111562000c6c57600080fd5b62000c7a8b828c0162000b69565b975050604089015167ffffffffffffffff81111562000c9857600080fd5b62000ca68b828c0162000b96565b965050606089015167ffffffffffffffff81111562000cc457600080fd5b62000cd28b828c0162000b96565b955050608089015167ffffffffffffffff81111562000cf057600080fd5b62000cfe8b828c0162000bc3565b94505060a089015167ffffffffffffffff81111562000d1c57600080fd5b62000d2a8b828c0162000bc3565b93505060c062000d3d8b828c0162000bf0565b92505060e062000d508b828c0162000bf0565b9150509295985092959890939650565b600062000d6d8262000f6f565b62000d79818562000f7a565b935062000d8b81856020860162000ff2565b62000d9681620010eb565b840191505092915050565b62000dac8162000fe8565b82525050565b6000604082019050818103600083015262000dce818562000d60565b9050818103602083015262000de4818462000d60565b90509392505050565b6000608082019050818103600083015262000e09818762000d60565b9050818103602083015262000e1f818662000d60565b905062000e30604083018562000da1565b818103606083015262000e44818462000d60565b905095945050505050565b6000608082019050818103600083015262000e6b818762000d60565b9050818103602083015262000e81818662000d60565b905062000e92604083018562000da1565b62000ea1606083018462000da1565b95945050505050565b6000604051905081810181811067ffffffffffffffff8211171562000ed45762000ed3620010bc565b5b8060405250919050565b600067ffffffffffffffff82111562000efc5762000efb620010bc565b5b602082029050602081019050919050565b600067ffffffffffffffff82111562000f2b5762000f2a620010bc565b5b602082029050602081019050919050565b600067ffffffffffffffff82111562000f5a5762000f59620010bc565b5b601f19601f8301169050602081019050919050565b600081519050919050565b600082825260208201905092915050565b600062000f988262000fe8565b915062000fa58362000fe8565b9250827fffffffffffffffffffffffffffffffffffffffffffffffffffffffffffffffff0382111562000fdd5762000fdc6200105e565b5b828201905092915050565b6000819050919050565b60005b838110156200101257808201518184015260208101905062000ff5565b8381111562001022576000848401525b50505050565b600060028204905060018216806200104157607f821691505b602082108114156200105857620010576200108d565b5b50919050565b7f4e487b7100000000000000000000000000000000000000000000000000000000600052601160045260246000fd5b7f4e487b7100000000000000000000000000000000000000000000000000000000600052602260045260246000fd5b7f4e487b7100000000000000000000000000000000000000000000000000000000600052604160045260246000fd5b6000601f19601f8301169050919050565b620011078162000fe8565b81146200111357600080fd5b50565b61524480620011266000396000f3fe6080604052600436106101405760003560e01c806395d89b41116100b6578063b953084e1161006f578063b953084e1461045b578063c87b56dd14610486578063c8cf27f4146104c3578063d4f24c5b146104ee578063e985e9c514610505578063f8b81ef71461054257610140565b806395d89b411461035157806398da4c951461037c578063a22cb465146103be578063a9c32679146103e7578063b1b60de714610416578063b88d4fde1461043257610140565b806323b872dd1161010857806323b872dd1461023e57806342842e0e146102675780635bc75e05146102905780636352211e1461029a57806370a08231146102d75780637df124a11461031457610140565b806301ffc9a7146101455780630665f9611461018257806306fdde03146101ad578063081812fc146101d8578063095ea7b314610215575b600080fd5b34801561015157600080fd5b5061016c6004803603810190610167919061374a565b61056b565b60405161017991906146cb565b60405180910390f35b34801561018e57600080fd5b5061019761064d565b6040516101a49190614b5b565b60405180910390f35b3480156101b957600080fd5b506101c26107a9565b6040516101cf91906146e6565b60405180910390f35b3480156101e457600080fd5b506101ff60048036038101906101fa919061379c565b61083b565b60405161020c919061460b565b60405180910390f35b34801561022157600080fd5b5061023c6004803603810190610237919061370e565b6108c0565b005b34801561024a57600080fd5b5061026560048036038101906102609190613608565b6109d8565b005b34801561027357600080fd5b5061028e60048036038101906102899190613608565b610a38565b005b610298610a58565b005b3480156102a657600080fd5b506102c160048036038101906102bc919061379c565b610bce565b6040516102ce919061460b565b60405180910390f35b3480156102e357600080fd5b506102fe60048036038101906102f991906135a3565b610c80565b60405161030b9190614b9f565b60405180910390f35b34801561032057600080fd5b5061033b600480360381019061033691906135a3565b610d38565b6040516103489190614b9f565b60405180910390f35b34801561035d57600080fd5b50610366610d50565b60405161037391906146e6565b60405180910390f35b34801561038857600080fd5b506103a3600480360381019061039e919061379c565b610de2565b6040516103b596959493929190614bba565b60405180910390f35b3480156103ca57600080fd5b506103e560048036038101906103e091906136d2565b610f2e565b005b3480156103f357600080fd5b506103fc6110af565b60405161040d9594939291906147ec565b60405180910390f35b610430600480360381019061042b919061379c565b6111e3565b005b34801561043e57600080fd5b5061045960048036038101906104549190613657565b6115e8565b005b34801561046757600080fd5b5061047061164a565b60405161047d91906146a9565b60405180910390f35b34801561049257600080fd5b506104ad60048036038101906104a8919061379c565b6117f5565b6040516104ba91906146e6565b60405180910390f35b3480156104cf57600080fd5b506104d8611a10565b6040516104e59190614b7d565b60405180910390f35b3480156104fa57600080fd5b50610503611be8565b005b34801561051157600080fd5b5061052c600480360381019061052791906135cc565b611f4c565b60405161053991906146cb565b60405180910390f35b34801561054e57600080fd5b506105696004803603810190610564919061379c565b611fe0565b005b60007f80ac58cd000000000000000000000000000000000000000000000000000000007bffffffffffffffffffffffffffffffffffffffffffffffffffffffff1916827bffffffffffffffffffffffffffffffffffffffffffffffffffffffff1916148061063657507f5b5e139f000000000000000000000000000000000000000000000000000000007bffffffffffffffffffffffffffffffffffffffffffffffffffffffff1916827bffffffffffffffffffffffffffffffffffffffffffffffffffffffff1916145b806106465750610645826125ca565b5b9050919050565b6106556133ca565b600b6040518060a001604052908160008201805461067290614f16565b80601f016020809104026020016040519081016040528092919081815260200182805461069e90614f16565b80156106eb5780601f106106c0576101008083540402835291602001916106eb565b820191906000526020600020905b8154815290600101906020018083116106ce57829003601f168201915b5050505050815260200160018201805461070490614f16565b80601f016020809104026020016040519081016040528092919081815260200182805461073090614f16565b801561077d5780601f106107525761010080835404028352916020019161077d565b820191906000526020600020905b81548152906001019060200180831161076057829003601f168201915b505050505081526020016002820154815260200160038201548152602001600482015481525050905090565b6060600080546107b890614f16565b80601f01602080910402602001604051908101604052809291908181526020018280546107e490614f16565b80156108315780601f1061080657610100808354040283529160200191610831565b820191906000526020600020905b81548152906001019060200180831161081457829003601f168201915b5050505050905090565b600061084682612634565b610885576040517f08c379a000000000000000000000000000000000000000000000000000000000815260040161087c90614a7b565b60405180910390fd5b6004600083815260200190815260200160002060009054906101000a900473ffffffffffffffffffffffffffffffffffffffff169050919050565b60006108cb82610bce565b90508073ffffffffffffffffffffffffffffffffffffffff168373ffffffffffffffffffffffffffffffffffffffff16141561093c576040517f08c379a000000000000000000000000000000000000000000000000000000000815260040161093390614abb565b60405180910390fd5b8073ffffffffffffffffffffffffffffffffffffffff1661095b6126a0565b73ffffffffffffffffffffffffffffffffffffffff16148061098a5750610989816109846126a0565b611f4c565b5b6109c9576040517f08c379a00000000000000000000000000000000000000000000000000000000081526004016109c09061499b565b60405180910390fd5b6109d383836126a8565b505050565b6109e96109e36126a0565b82612761565b610a28576040517f08c379a0000000000000000000000000000000000000000000000000000000008152600401610a1f90614afb565b60405180910390fd5b610a3383838361283f565b505050565b610a53838383604051806020016040528060008152506115e8565b505050565b6000600a60003373ffffffffffffffffffffffffffffffffffffffff1673ffffffffffffffffffffffffffffffffffffffff16815260200190815260200160002054905060006009600083815260200190815260200160002090506000816003015414610afa576040517f08c379a0000000000000000000000000000000000000000000000000000000008152600401610af1906149bb565b60405180910390fd5b6611c37937e080003414610b43576040517f08c379a0000000000000000000000000000000000000000000000000000000008152600401610b3a906148bb565b60405180910390fd5b80600401548160030181905550610b8f6040518060400160405280601981526020017f6e6674506c61796572546f6b656e20257320726576697665640000000000000081525083612a9b565b7f2ef9deb97512c1c0a10cd6a8ec8a28581958abf30841ec9a783081a39f49ba098160030154604051610bc29190614b9f565b60405180910390a15050565b6000806002600084815260200190815260200160002060009054906101000a900473ffffffffffffffffffffffffffffffffffffffff169050600073ffffffffffffffffffffffffffffffffffffffff168173ffffffffffffffffffffffffffffffffffffffff161415610c77576040517f08c379a0000000000000000000000000000000000000000000000000000000008152600401610c6e906149fb565b60405180910390fd5b80915050919050565b60008073ffffffffffffffffffffffffffffffffffffffff168273ffffffffffffffffffffffffffffffffffffffff161415610cf1576040517f08c379a0000000000000000000000000000000000000000000000000000000008152600401610ce8906149db565b60405180910390fd5b600360008373ffffffffffffffffffffffffffffffffffffffff1673ffffffffffffffffffffffffffffffffffffffff168152602001908152602001600020549050919050565b600a6020528060005260406000206000915090505481565b606060018054610d5f90614f16565b80601f0160208091040260200160405190810160405280929190818152602001828054610d8b90614f16565b8015610dd85780601f10610dad57610100808354040283529160200191610dd8565b820191906000526020600020905b815481529060010190602001808311610dbb57829003601f168201915b5050505050905090565b6009602052806000526040600020600091509050806000015490806001018054610e0b90614f16565b80601f0160208091040260200160405190810160405280929190818152602001828054610e3790614f16565b8015610e845780601f10610e5957610100808354040283529160200191610e84565b820191906000526020600020905b815481529060010190602001808311610e6757829003601f168201915b505050505090806002018054610e9990614f16565b80601f0160208091040260200160405190810160405280929190818152602001828054610ec590614f16565b8015610f125780601f10610ee757610100808354040283529160200191610f12565b820191906000526020600020905b815481529060010190602001808311610ef557829003601f168201915b5050505050908060030154908060040154908060050154905086565b610f366126a0565b73ffffffffffffffffffffffffffffffffffffffff168273ffffffffffffffffffffffffffffffffffffffff161415610fa4576040517f08c379a0000000000000000000000000000000000000000000000000000000008152600401610f9b9061495b565b60405180910390fd5b8060056000610fb16126a0565b73ffffffffffffffffffffffffffffffffffffffff1673ffffffffffffffffffffffffffffffffffffffff16815260200190815260200160002060008473ffffffffffffffffffffffffffffffffffffffff1673ffffffffffffffffffffffffffffffffffffffff16815260200190815260200160002060006101000a81548160ff0219169083151502179055508173ffffffffffffffffffffffffffffffffffffffff1661105e6126a0565b73ffffffffffffffffffffffffffffffffffffffff167f17307eab39ab6107e8899845ad3d59bd9653f200f220920489ca2b5937696c31836040516110a391906146cb565b60405180910390a35050565b600b8060000180546110c090614f16565b80601f01602080910402602001604051908101604052809291908181526020018280546110ec90614f16565b80156111395780601f1061110e57610100808354040283529160200191611139565b820191906000526020600020905b81548152906001019060200180831161111c57829003601f168201915b50505050509080600101805461114e90614f16565b80601f016020809104026020016040519081016040528092919081815260200182805461117a90614f16565b80156111c75780601f1061119c576101008083540402835291602001916111c7565b820191906000526020600020905b8154815290600101906020018083116111aa57829003601f168201915b5050505050908060020154908060030154908060040154905085565b6000600a60003373ffffffffffffffffffffffffffffffffffffffff1673ffffffffffffffffffffffffffffffffffffffff16815260200190815260200160002054905060006009600083815260200190815260200160002090508060040154816003015410611288576040517f08c379a000000000000000000000000000000000000000000000000000000000815260040161127f90614b1b565b60405180910390fd5b600081600301548461129a9190614d4b565b905060008260030154116112e3576040517f08c379a00000000000000000000000000000000000000000000000000000000081526004016112da90614a3b565b60405180910390fd5b81600401548111156114ea576000846006546112ff9190614dd2565b90506113406040518060400160405280602081526020017f257320726571756972656420666f722074686973207472616e73616374696f6e81525082612a9b565b80341015611383576040517f08c379a000000000000000000000000000000000000000000000000000000000815260040161137a90614b3b565b60405180910390fd5b60008360040154836113959190614e2c565b90506113b960405180606001604052806030815260200161510d6030913982612a9b565b6000600654826113c99190614dd2565b90506113ed6040518060600160405280602181526020016150ec6021913982612a9b565b846004015485600301819055507f0585e94633e67ae51a51870733f76930a63d226e5dd8022290a3e072bae7ee61856003015460405161142d9190614b9f565b60405180910390a160003373ffffffffffffffffffffffffffffffffffffffff168260405161145b906145f6565b60006040518083038185875af1925050503d8060008114611498576040519150601f19603f3d011682016040523d82523d6000602084013e61149d565b606091505b50509050806114e1576040517f08c379a00000000000000000000000000000000000000000000000000000000081526004016114d890614adb565b60405180910390fd5b505050506115e2565b816004015481116115e1576000846006546115059190614dd2565b90506115466040518060400160405280602081526020017f257320726571756972656420666f722074686973207472616e73616374696f6e81525082612a9b565b80341015611589576040517f08c379a000000000000000000000000000000000000000000000000000000000815260040161158090614b3b565b60405180910390fd5b8483600301600082825461159d9190614d4b565b925050819055507f0585e94633e67ae51a51870733f76930a63d226e5dd8022290a3e072bae7ee6183600301546040516115d79190614b9f565b60405180910390a1505b5b50505050565b6115f96115f36126a0565b83612761565b611638576040517f08c379a000000000000000000000000000000000000000000000000000000000815260040161162f90614afb565b60405180910390fd5b61164484848484612b37565b50505050565b60606008805480602002602001604051908101604052809291908181526020016000905b828210156117ec57838290600052602060002090600602016040518060c0016040529081600082015481526020016001820180546116ab90614f16565b80601f01602080910402602001604051908101604052809291908181526020018280546116d790614f16565b80156117245780601f106116f957610100808354040283529160200191611724565b820191906000526020600020905b81548152906001019060200180831161170757829003601f168201915b5050505050815260200160028201805461173d90614f16565b80601f016020809104026020016040519081016040528092919081815260200182805461176990614f16565b80156117b65780601f1061178b576101008083540402835291602001916117b6565b820191906000526020600020905b81548152906001019060200180831161179957829003601f168201915b5050505050815260200160038201548152602001600482015481526020016005820154815250508152602001906001019061166e565b50505050905090565b60606000600960008481526020019081526020016000206040518060c00160405290816000820154815260200160018201805461183190614f16565b80601f016020809104026020016040519081016040528092919081815260200182805461185d90614f16565b80156118aa5780601f1061187f576101008083540402835291602001916118aa565b820191906000526020600020905b81548152906001019060200180831161188d57829003601f168201915b505050505081526020016002820180546118c390614f16565b80601f01602080910402602001604051908101604052809291908181526020018280546118ef90614f16565b801561193c5780601f106119115761010080835404028352916020019161193c565b820191906000526020600020905b81548152906001019060200180831161191f57829003601f168201915b505050505081526020016003820154815260200160048201548152602001600582015481525050905060006119748260600151612b93565b905060006119858360800151612b93565b905060006119968460a00151612b93565b905060006119dc85602001516119ab89612b93565b87604001518787876040516020016119c89695949392919061452f565b604051602081830303815290604052612d40565b90506000816040516020016119f191906145d4565b6040516020818303038152906040529050809650505050505050919050565b611a186133f9565b6000600a60003373ffffffffffffffffffffffffffffffffffffffff1673ffffffffffffffffffffffffffffffffffffffff1681526020019081526020016000205490506000811115611bd757600960008281526020019081526020016000206040518060c001604052908160008201548152602001600182018054611a9d90614f16565b80601f0160208091040260200160405190810160405280929190818152602001828054611ac990614f16565b8015611b165780601f10611aeb57610100808354040283529160200191611b16565b820191906000526020600020905b815481529060010190602001808311611af957829003601f168201915b50505050508152602001600282018054611b2f90614f16565b80601f0160208091040260200160405190810160405280929190818152602001828054611b5b90614f16565b8015611ba85780601f10611b7d57610100808354040283529160200191611ba8565b820191906000526020600020905b815481529060010190602001808311611b8b57829003601f168201915b505050505081526020016003820154815260200160048201548152602001600582015481525050915050611be5565b611bdf6133f9565b80925050505b90565b6000600a60003373ffffffffffffffffffffffffffffffffffffffff1673ffffffffffffffffffffffffffffffffffffffff1681526020019081526020016000205490506000600960008381526020019081526020016000209050611cfb6040518060600160405280603c81526020016151d3603c9139826001018054611c6e90614f16565b80601f0160208091040260200160405190810160405280929190818152602001828054611c9a90614f16565b8015611ce75780601f10611cbc57610100808354040283529160200191611ce7565b820191906000526020600020905b815481529060010190602001808311611cca57829003601f168201915b505050505083600301548460050154612476565b611dd36040518060400160405280601b81526020017f426f73732025732068617320257320485020616e642025732041440000000000815250600b6000018054611d4490614f16565b80601f0160208091040260200160405190810160405280929190818152602001828054611d7090614f16565b8015611dbd5780601f10611d9257610100808354040283529160200191611dbd565b820191906000526020600020905b815481529060010190602001808311611da057829003601f168201915b5050505050600b60020154600b60040154612476565b6000816003015411611e1a576040517f08c379a0000000000000000000000000000000000000000000000000000000008152600401611e1190614a1b565b60405180910390fd5b6000600b6002015411611e62576040517f08c379a0000000000000000000000000000000000000000000000000000000008152600401611e59906148fb565b60405180910390fd5b8060050154600b600201541015611e83576000600b60020181905550611ea2565b8060050154600b60020154611e989190614e2c565b600b600201819055505b600b6004015481600301541015611ec25760008160030181905550611ee0565b600b600401548160030154611ed79190614e2c565b81600301819055505b611f0660405180606001604052806028815260200161517d602891398260030154612a9b565b7f838ab28464562786a6c4ab2311964b82fa60bd9b14aa7e856af1f3f18d41a414600b600201548260030154604051611f40929190614c29565b60405180910390a15050565b6000600560008473ffffffffffffffffffffffffffffffffffffffff1673ffffffffffffffffffffffffffffffffffffffff16815260200190815260200160002060008373ffffffffffffffffffffffffffffffffffffffff1673ffffffffffffffffffffffffffffffffffffffff16815260200190815260200160002060009054906101000a900460ff16905092915050565b6000611fec6007612efe565b9050611ff83382612f0c565b6040518060c0016040528083815260200160088481548110612043577f4e487b7100000000000000000000000000000000000000000000000000000000600052603260045260246000fd5b9060005260206000209060060201600101805461205f90614f16565b80601f016020809104026020016040519081016040528092919081815260200182805461208b90614f16565b80156120d85780601f106120ad576101008083540402835291602001916120d8565b820191906000526020600020905b8154815290600101906020018083116120bb57829003601f168201915b505050505081526020016008848154811061211c577f4e487b7100000000000000000000000000000000000000000000000000000000600052603260045260246000fd5b9060005260206000209060060201600201805461213890614f16565b80601f016020809104026020016040519081016040528092919081815260200182805461216490614f16565b80156121b15780601f10612186576101008083540402835291602001916121b1565b820191906000526020600020905b81548152906001019060200180831161219457829003601f168201915b50505050508152602001600884815481106121f5577f4e487b7100000000000000000000000000000000000000000000000000000000600052603260045260246000fd5b906000526020600020906006020160030154815260200160088481548110612246577f4e487b7100000000000000000000000000000000000000000000000000000000600052603260045260246000fd5b906000526020600020906006020160030154815260200160088481548110612297577f4e487b7100000000000000000000000000000000000000000000000000000000600052603260045260246000fd5b906000526020600020906006020160050154815250600960008381526020019081526020016000206000820151816000015560208201518160010190805190602001906122e592919061342f565b50604082015181600201908051906020019061230292919061342f565b50606082015181600301556080820151816004015560a082015181600501559050506123476040518060600160405280602e81526020016151a5602e91398284612f2a565b80600a60003373ffffffffffffffffffffffffffffffffffffffff1673ffffffffffffffffffffffffffffffffffffffff1681526020019081526020016000208190555061239560076125b4565b7f4bc303fd457a97b4691b9af582ce71868a3d258638c8d4f8c60988a0f0bfb8cd3382846040516123c893929190614672565b60405180910390a15050565b612470848484846040516024016123ee949392919061473f565b6040516020818303038152906040527f8d142cdd000000000000000000000000000000000000000000000000000000007bffffffffffffffffffffffffffffffffffffffffffffffffffffffff19166020820180517bffffffffffffffffffffffffffffffffffffffffffffffffffffffff8381831617835250505050612fc9565b50505050565b612512848484846040516024016124909493929190614799565b6040516020818303038152906040527fd5cf17d0000000000000000000000000000000000000000000000000000000007bffffffffffffffffffffffffffffffffffffffffffffffffffffffff19166020820180517bffffffffffffffffffffffffffffffffffffffffffffffffffffffff8381831617835250505050612fc9565b50505050565b6125b0828260405160240161252e929190614708565b6040516020818303038152906040527f4b5c4277000000000000000000000000000000000000000000000000000000007bffffffffffffffffffffffffffffffffffffffffffffffffffffffff19166020820180517bffffffffffffffffffffffffffffffffffffffffffffffffffffffff8381831617835250505050612fc9565b5050565b6001816000016000828254019250508190555050565b60007f01ffc9a7000000000000000000000000000000000000000000000000000000007bffffffffffffffffffffffffffffffffffffffffffffffffffffffff1916827bffffffffffffffffffffffffffffffffffffffffffffffffffffffff1916149050919050565b60008073ffffffffffffffffffffffffffffffffffffffff166002600084815260200190815260200160002060009054906101000a900473ffffffffffffffffffffffffffffffffffffffff1673ffffffffffffffffffffffffffffffffffffffff1614159050919050565b600033905090565b816004600083815260200190815260200160002060006101000a81548173ffffffffffffffffffffffffffffffffffffffff021916908373ffffffffffffffffffffffffffffffffffffffff160217905550808273ffffffffffffffffffffffffffffffffffffffff1661271b83610bce565b73ffffffffffffffffffffffffffffffffffffffff167f8c5be1e5ebec7d5bd14f71427d1e84f3dd0314c0f7b2291e5b200ac8c7c3b92560405160405180910390a45050565b600061276c82612634565b6127ab576040517f08c379a00000000000000000000000000000000000000000000000000000000081526004016127a29061497b565b60405180910390fd5b60006127b683610bce565b90508073ffffffffffffffffffffffffffffffffffffffff168473ffffffffffffffffffffffffffffffffffffffff16148061282557508373ffffffffffffffffffffffffffffffffffffffff1661280d8461083b565b73ffffffffffffffffffffffffffffffffffffffff16145b8061283657506128358185611f4c565b5b91505092915050565b8273ffffffffffffffffffffffffffffffffffffffff1661285f82610bce565b73ffffffffffffffffffffffffffffffffffffffff16146128b5576040517f08c379a00000000000000000000000000000000000000000000000000000000081526004016128ac90614a9b565b60405180910390fd5b600073ffffffffffffffffffffffffffffffffffffffff168273ffffffffffffffffffffffffffffffffffffffff161415612925576040517f08c379a000000000000000000000000000000000000000000000000000000000815260040161291c9061493b565b60405180910390fd5b612930838383612ff2565b61293b6000826126a8565b6001600360008573ffffffffffffffffffffffffffffffffffffffff1673ffffffffffffffffffffffffffffffffffffffff168152602001908152602001600020600082825461298b9190614e2c565b925050819055506001600360008473ffffffffffffffffffffffffffffffffffffffff1673ffffffffffffffffffffffffffffffffffffffff16815260200190815260200160002060008282546129e29190614d4b565b92505081905550816002600083815260200190815260200160002060006101000a81548173ffffffffffffffffffffffffffffffffffffffff021916908373ffffffffffffffffffffffffffffffffffffffff160217905550808273ffffffffffffffffffffffffffffffffffffffff168473ffffffffffffffffffffffffffffffffffffffff167fddf252ad1be2c89b69c2b068fc378daa952ba7f163c4a11628f55a4df523b3ef60405160405180910390a4505050565b612b338282604051602401612ab192919061484d565b6040516020818303038152906040527f9710a9d0000000000000000000000000000000000000000000000000000000007bffffffffffffffffffffffffffffffffffffffffffffffffffffffff19166020820180517bffffffffffffffffffffffffffffffffffffffffffffffffffffffff8381831617835250505050612fc9565b5050565b612b4284848461283f565b612b4e84848484612ff7565b612b8d576040517f08c379a0000000000000000000000000000000000000000000000000000000008152600401612b84906148db565b60405180910390fd5b50505050565b60606000821415612bdb576040518060400160405280600181526020017f30000000000000000000000000000000000000000000000000000000000000008152509050612d3b565b600082905060005b60008214612c0d578080612bf690614f48565b915050600a82612c069190614da1565b9150612be3565b60008167ffffffffffffffff811115612c4f577f4e487b7100000000000000000000000000000000000000000000000000000000600052604160045260246000fd5b6040519080825280601f01601f191660200182016040528015612c815781602001600182028036833780820191505090505b5090505b60008514612d3457600182612c9a9190614e2c565b9150600a85612ca99190614f91565b6030612cb59190614d4b565b60f81b818381518110612cf1577f4e487b7100000000000000000000000000000000000000000000000000000000600052603260045260246000fd5b60200101907effffffffffffffffffffffffffffffffffffffffffffffffffffffffffffff1916908160001a905350600a85612d2d9190614da1565b9450612c85565b8093505050505b919050565b60606000825190506000811415612d695760405180602001604052806000815250915050612ef9565b60006003600283612d7a9190614d4b565b612d849190614da1565b6004612d909190614dd2565b90506000602082612da19190614d4b565b67ffffffffffffffff811115612de0577f4e487b7100000000000000000000000000000000000000000000000000000000600052604160045260246000fd5b6040519080825280601f01601f191660200182016040528015612e125781602001600182028036833780820191505090505b509050600060405180606001604052806040815260200161513d604091399050600181016020830160005b86811015612eb65760038101905062ffffff818a015116603f8160121c168401518060081b905060ff603f83600c1c1686015116810190508060081b905060ff603f8360061c1686015116810190508060081b905060ff603f831686015116810190508060e01b90508084526004840193505050612e3d565b506003860660018114612ed05760028114612ee057612eeb565b613d3d60f01b6002830352612eeb565b603d60f81b60018303525b508484525050819450505050505b919050565b600081600001549050919050565b612f2682826040518060200160405280600081525061318e565b5050565b612fc4838383604051602401612f429392919061487d565b6040516020818303038152906040527f969cdd03000000000000000000000000000000000000000000000000000000007bffffffffffffffffffffffffffffffffffffffffffffffffffffffff19166020820180517bffffffffffffffffffffffffffffffffffffffffffffffffffffffff8381831617835250505050612fc9565b505050565b60008151905060006a636f6e736f6c652e6c6f679050602083016000808483855afa5050505050565b505050565b60006130188473ffffffffffffffffffffffffffffffffffffffff166131e9565b15613181578373ffffffffffffffffffffffffffffffffffffffff1663150b7a026130416126a0565b8786866040518563ffffffff1660e01b81526004016130639493929190614626565b602060405180830381600087803b15801561307d57600080fd5b505af19250505080156130ae57506040513d601f19601f820116820180604052508101906130ab9190613773565b60015b613131573d80600081146130de576040519150601f19603f3d011682016040523d82523d6000602084013e6130e3565b606091505b50600081511415613129576040517f08c379a0000000000000000000000000000000000000000000000000000000008152600401613120906148db565b60405180910390fd5b805181602001fd5b63150b7a0260e01b7bffffffffffffffffffffffffffffffffffffffffffffffffffffffff1916817bffffffffffffffffffffffffffffffffffffffffffffffffffffffff191614915050613186565b600190505b949350505050565b61319883836131fc565b6131a56000848484612ff7565b6131e4576040517f08c379a00000000000000000000000000000000000000000000000000000000081526004016131db906148db565b60405180910390fd5b505050565b600080823b905060008111915050919050565b600073ffffffffffffffffffffffffffffffffffffffff168273ffffffffffffffffffffffffffffffffffffffff16141561326c576040517f08c379a000000000000000000000000000000000000000000000000000000000815260040161326390614a5b565b60405180910390fd5b61327581612634565b156132b5576040517f08c379a00000000000000000000000000000000000000000000000000000000081526004016132ac9061491b565b60405180910390fd5b6132c160008383612ff2565b6001600360008473ffffffffffffffffffffffffffffffffffffffff1673ffffffffffffffffffffffffffffffffffffffff16815260200190815260200160002060008282546133119190614d4b565b92505081905550816002600083815260200190815260200160002060006101000a81548173ffffffffffffffffffffffffffffffffffffffff021916908373ffffffffffffffffffffffffffffffffffffffff160217905550808273ffffffffffffffffffffffffffffffffffffffff16600073ffffffffffffffffffffffffffffffffffffffff167fddf252ad1be2c89b69c2b068fc378daa952ba7f163c4a11628f55a4df523b3ef60405160405180910390a45050565b6040518060a0016040528060608152602001606081526020016000815260200160008152602001600081525090565b6040518060c001604052806000815260200160608152602001606081526020016000815260200160008152602001600081525090565b82805461343b90614f16565b90600052602060002090601f01602090048101928261345d57600085556134a4565b82601f1061347657805160ff19168380011785556134a4565b828001600101855582156134a4579182015b828111156134a3578251825591602001919060010190613488565b5b5090506134b191906134b5565b5090565b5b808211156134ce5760008160009055506001016134b6565b5090565b60006134e56134e084614c83565b614c52565b9050828152602081018484840111156134fd57600080fd5b613508848285614ed4565b509392505050565b60008135905061351f8161508f565b92915050565b600081359050613534816150a6565b92915050565b600081359050613549816150bd565b92915050565b60008151905061355e816150bd565b92915050565b600082601f83011261357557600080fd5b81356135858482602086016134d2565b91505092915050565b60008135905061359d816150d4565b92915050565b6000602082840312156135b557600080fd5b60006135c384828501613510565b91505092915050565b600080604083850312156135df57600080fd5b60006135ed85828601613510565b92505060206135fe85828601613510565b9150509250929050565b60008060006060848603121561361d57600080fd5b600061362b86828701613510565b935050602061363c86828701613510565b925050604061364d8682870161358e565b9150509250925092565b6000806000806080858703121561366d57600080fd5b600061367b87828801613510565b945050602061368c87828801613510565b935050604061369d8782880161358e565b925050606085013567ffffffffffffffff8111156136ba57600080fd5b6136c687828801613564565b91505092959194509250565b600080604083850312156136e557600080fd5b60006136f385828601613510565b925050602061370485828601613525565b9150509250929050565b6000806040838503121561372157600080fd5b600061372f85828601613510565b92505060206137408582860161358e565b9150509250929050565b60006020828403121561375c57600080fd5b600061376a8482850161353a565b91505092915050565b60006020828403121561378557600080fd5b60006137938482850161354f565b91505092915050565b6000602082840312156137ae57600080fd5b60006137bc8482850161358e565b91505092915050565b60006137d183836143f1565b905092915050565b6137e281614e60565b82525050565b60006137f382614cc3565b6137fd8185614cf1565b93508360208202850161380f85614cb3565b8060005b8581101561384b578484038952815161382c85826137c5565b945061383783614ce4565b925060208a01995050600181019050613813565b50829750879550505050505092915050565b61386681614e72565b82525050565b600061387782614cce565b6138818185614d02565b9350613891818560208601614ee3565b61389a8161507e565b840191505092915050565b60006138b082614cd9565b6138ba8185614d1e565b93506138ca818560208601614ee3565b6138d38161507e565b840191505092915050565b60006138e982614cd9565b6138f38185614d2f565b9350613903818560208601614ee3565b61390c8161507e565b840191505092915050565b600061392282614cd9565b61392c8185614d40565b935061393c818560208601614ee3565b80840191505092915050565b6000613955601883614d2f565b91507f5265766976616c20636f737473202e30303520657468657200000000000000006000830152602082019050919050565b6000613995600b83614d40565b91507f202d2d204e465420233a200000000000000000000000000000000000000000006000830152600b82019050919050565b60006139d5603283614d2f565b91507f4552433732313a207472616e7366657220746f206e6f6e20455243373231526560008301527f63656976657220696d706c656d656e74657200000000000000000000000000006020830152604082019050919050565b6000613a3b602883614d2f565b91507f4572726f723a20626f7373206d757374206861766520485020746f206174746160008301527f636b20626f73732e0000000000000000000000000000000000000000000000006020830152604082019050919050565b6000613aa1601c83614d2f565b91507f4552433732313a20746f6b656e20616c7265616479206d696e746564000000006000830152602082019050919050565b6000613ae1600e83614d40565b91507f2c20226d61785f76616c7565223a0000000000000000000000000000000000006000830152600e82019050919050565b6000613b21602483614d2f565b91507f4552433732313a207472616e7366657220746f20746865207a65726f2061646460008301527f72657373000000000000000000000000000000000000000000000000000000006020830152604082019050919050565b6000613b87601983614d2f565b91507f4552433732313a20617070726f766520746f2063616c6c6572000000000000006000830152602082019050919050565b6000613bc7602c83614d2f565b91507f4552433732313a206f70657261746f7220717565727920666f72206e6f6e657860008301527f697374656e7420746f6b656e00000000000000000000000000000000000000006020830152604082019050919050565b6000613c2d603883614d2f565b91507f4552433732313a20617070726f76652063616c6c6572206973206e6f74206f7760008301527f6e6572206e6f7220617070726f76656420666f7220616c6c00000000000000006020830152604082019050919050565b6000613c93601d83614d2f565b91507f4572726f723a20636861726163746572206d757374206265206465642e0000006000830152602082019050919050565b6000613cd3602a83614d2f565b91507f4552433732313a2062616c616e636520717565727920666f7220746865207a6560008301527f726f2061646472657373000000000000000000000000000000000000000000006020830152604082019050919050565b6000613d39602983614d2f565b91507f4552433732313a206f776e657220717565727920666f72206e6f6e657869737460008301527f656e7420746f6b656e00000000000000000000000000000000000000000000006020830152604082019050919050565b6000613d9f602d83614d2f565b91507f4572726f723a20636861726163746572206d757374206861766520485020746f60008301527f2061747461636b20626f73732e000000000000000000000000000000000000006020830152604082019050919050565b6000613e05600483614d40565b91507f7d205d7d000000000000000000000000000000000000000000000000000000006000830152600482019050919050565b6000613e45603383614d2f565b91507f4572726f723a20636861726163746572206973206465642e204865616c74682060008301527f69736e277420676f696e6720746f2068656c70000000000000000000000000006020830152604082019050919050565b6000613eab602083614d2f565b91507f4552433732313a206d696e7420746f20746865207a65726f20616464726573736000830152602082019050919050565b6000613eeb602c83614d2f565b91507f4552433732313a20617070726f76656420717565727920666f72206e6f6e657860008301527f697374656e7420746f6b656e00000000000000000000000000000000000000006020830152604082019050919050565b6000613f51602983614d2f565b91507f4552433732313a207472616e73666572206f6620746f6b656e2074686174206960008301527f73206e6f74206f776e00000000000000000000000000000000000000000000006020830152604082019050919050565b6000613fb7600a83614d40565b91507f7b226e616d65223a2022000000000000000000000000000000000000000000006000830152600a82019050919050565b6000613ff7602183614d2f565b91507f4552433732313a20617070726f76616c20746f2063757272656e74206f776e6560008301527f72000000000000000000000000000000000000000000000000000000000000006020830152604082019050919050565b600061405d601d83614d40565b91507f646174613a6170706c69636174696f6e2f6a736f6e3b6261736536342c0000006000830152601d82019050919050565b600061409d600083614d13565b9150600082019050919050565b60006140b7601883614d2f565b91507f52657475726e696e67206368616e6765206661696c65642e00000000000000006000830152602082019050919050565b60006140f7606983614d40565b91507f222c20226465736372697074696f6e223a20225468697320697320616e204e4660008301527f542074686174206c6574732070656f706c6520706c617920696e20746865206760208301527f616d65204d657461766572736520536c6179657221222c2022696d616765223a60408301527f2022697066733a2f2f00000000000000000000000000000000000000000000006060830152606982019050919050565b60006141a9603183614d2f565b91507f4552433732313a207472616e736665722063616c6c6572206973206e6f74206f60008301527f776e6572206e6f7220617070726f7665640000000000000000000000000000006020830152604082019050919050565b600061420f603383614d2f565b91507f4572726f723a20636861726163746572206d757374206e6f7420626520616c7260008301527f656164792061742066756c6c206865616c7468000000000000000000000000006020830152604082019050919050565b6000614275603d83614d40565b91507f222c202261747472696275746573223a205b207b202274726169745f7479706560008301527f223a20224865616c746820506f696e7473222c202276616c7565223a200000006020830152603d82019050919050565b60006142db602d83614d40565b91507f7d2c207b202274726169745f74797065223a202241747461636b2044616d616760008301527f65222c202276616c7565223a20000000000000000000000000000000000000006020830152602d82019050919050565b6000614341601783614d2f565b91507f496e73756666696369656e742066756e64732073656e740000000000000000006000830152602082019050919050565b600060a083016000830151848203600086015261439182826138a5565b915050602083015184820360208601526143ab82826138a5565b91505060408301516143c06040860182614511565b5060608301516143d36060860182614511565b5060808301516143e66080860182614511565b508091505092915050565b600060c0830160008301516144096000860182614511565b506020830151848203602086015261442182826138a5565b9150506040830151848203604086015261443b82826138a5565b91505060608301516144506060860182614511565b5060808301516144636080860182614511565b5060a083015161447660a0860182614511565b508091505092915050565b600060c0830160008301516144996000860182614511565b50602083015184820360208601526144b182826138a5565b915050604083015184820360408601526144cb82826138a5565b91505060608301516144e06060860182614511565b5060808301516144f36080860182614511565b5060a083015161450660a0860182614511565b508091505092915050565b61451a81614eca565b82525050565b61452981614eca565b82525050565b600061453a82613faa565b91506145468289613917565b915061455182613988565b915061455d8288613917565b9150614568826140ea565b91506145748287613917565b915061457f82614268565b915061458b8286613917565b915061459682613ad4565b91506145a28285613917565b91506145ad826142ce565b91506145b98284613917565b91506145c482613df8565b9150819050979650505050505050565b60006145df82614050565b91506145eb8284613917565b915081905092915050565b600061460182614090565b9150819050919050565b600060208201905061462060008301846137d9565b92915050565b600060808201905061463b60008301876137d9565b61464860208301866137d9565b6146556040830185614520565b8181036060830152614667818461386c565b905095945050505050565b600060608201905061468760008301866137d9565b6146946020830185614520565b6146a16040830184614520565b949350505050565b600060208201905081810360008301526146c381846137e8565b905092915050565b60006020820190506146e0600083018461385d565b92915050565b6000602082019050818103600083015261470081846138de565b905092915050565b6000604082019050818103600083015261472281856138de565b9050818103602083015261473681846138de565b90509392505050565b6000608082019050818103600083015261475981876138de565b9050818103602083015261476d81866138de565b905061477c6040830185614520565b818103606083015261478e81846138de565b905095945050505050565b600060808201905081810360008301526147b381876138de565b905081810360208301526147c781866138de565b90506147d66040830185614520565b6147e36060830184614520565b95945050505050565b600060a082019050818103600083015261480681886138de565b9050818103602083015261481a81876138de565b90506148296040830186614520565b6148366060830185614520565b6148436080830184614520565b9695505050505050565b6000604082019050818103600083015261486781856138de565b90506148766020830184614520565b9392505050565b6000606082019050818103600083015261489781866138de565b90506148a66020830185614520565b6148b36040830184614520565b949350505050565b600060208201905081810360008301526148d481613948565b9050919050565b600060208201905081810360008301526148f4816139c8565b9050919050565b6000602082019050818103600083015261491481613a2e565b9050919050565b6000602082019050818103600083015261493481613a94565b9050919050565b6000602082019050818103600083015261495481613b14565b9050919050565b6000602082019050818103600083015261497481613b7a565b9050919050565b6000602082019050818103600083015261499481613bba565b9050919050565b600060208201905081810360008301526149b481613c20565b9050919050565b600060208201905081810360008301526149d481613c86565b9050919050565b600060208201905081810360008301526149f481613cc6565b9050919050565b60006020820190508181036000830152614a1481613d2c565b9050919050565b60006020820190508181036000830152614a3481613d92565b9050919050565b60006020820190508181036000830152614a5481613e38565b9050919050565b60006020820190508181036000830152614a7481613e9e565b9050919050565b60006020820190508181036000830152614a9481613ede565b9050919050565b60006020820190508181036000830152614ab481613f44565b9050919050565b60006020820190508181036000830152614ad481613fea565b9050919050565b60006020820190508181036000830152614af4816140aa565b9050919050565b60006020820190508181036000830152614b148161419c565b9050919050565b60006020820190508181036000830152614b3481614202565b9050919050565b60006020820190508181036000830152614b5481614334565b9050919050565b60006020820190508181036000830152614b758184614374565b905092915050565b60006020820190508181036000830152614b978184614481565b905092915050565b6000602082019050614bb46000830184614520565b92915050565b600060c082019050614bcf6000830189614520565b8181036020830152614be181886138de565b90508181036040830152614bf581876138de565b9050614c046060830186614520565b614c116080830185614520565b614c1e60a0830184614520565b979650505050505050565b6000604082019050614c3e6000830185614520565b614c4b6020830184614520565b9392505050565b6000604051905081810181811067ffffffffffffffff82111715614c7957614c7861504f565b5b8060405250919050565b600067ffffffffffffffff821115614c9e57614c9d61504f565b5b601f19601f8301169050602081019050919050565b6000819050602082019050919050565b600081519050919050565b600081519050919050565b600081519050919050565b6000602082019050919050565b600082825260208201905092915050565b600082825260208201905092915050565b600081905092915050565b600082825260208201905092915050565b600082825260208201905092915050565b600081905092915050565b6000614d5682614eca565b9150614d6183614eca565b9250827fffffffffffffffffffffffffffffffffffffffffffffffffffffffffffffffff03821115614d9657614d95614fc2565b5b828201905092915050565b6000614dac82614eca565b9150614db783614eca565b925082614dc757614dc6614ff1565b5b828204905092915050565b6000614ddd82614eca565b9150614de883614eca565b9250817fffffffffffffffffffffffffffffffffffffffffffffffffffffffffffffffff0483118215151615614e2157614e20614fc2565b5b828202905092915050565b6000614e3782614eca565b9150614e4283614eca565b925082821015614e5557614e54614fc2565b5b828203905092915050565b6000614e6b82614eaa565b9050919050565b60008115159050919050565b60007fffffffff0000000000000000000000000000000000000000000000000000000082169050919050565b600073ffffffffffffffffffffffffffffffffffffffff82169050919050565b6000819050919050565b82818337600083830152505050565b60005b83811015614f01578082015181840152602081019050614ee6565b83811115614f10576000848401525b50505050565b60006002820490506001821680614f2e57607f821691505b60208210811415614f4257614f41615020565b5b50919050565b6000614f5382614eca565b91507fffffffffffffffffffffffffffffffffffffffffffffffffffffffffffffffff821415614f8657614f85614fc2565b5b600182019050919050565b6000614f9c82614eca565b9150614fa783614eca565b925082614fb757614fb6614ff1565b5b828206905092915050565b7f4e487b7100000000000000000000000000000000000000000000000000000000600052601160045260246000fd5b7f4e487b7100000000000000000000000000000000000000000000000000000000600052601260045260246000fd5b7f4e487b7100000000000000000000000000000000000000000000000000000000600052602260045260246000fd5b7f4e487b7100000000000000000000000000000000000000000000000000000000600052604160045260246000fd5b6000601f19601f8301169050919050565b61509881614e60565b81146150a357600080fd5b50565b6150af81614e72565b81146150ba57600080fd5b50565b6150c681614e7e565b81146150d157600080fd5b50565b6150dd81614eca565b81146150e857600080fd5b5056fe43616c63756c61746564206368616e676520746f2067697665206261636b20257357686f6f70732c20796f75206b696e6461206f76657273686f74207468657265206775792062792061626f75742025734142434445464748494a4b4c4d4e4f505152535455565758595a6162636465666768696a6b6c6d6e6f707172737475767778797a303132333435363738392b2f426f73732061747461636b656420706c617965722e204e657720706c617965722068703a2025730a4d696e746564204e465420772f20746f6b656e496420257320616e6420636861726163746572496e6465782025730a506c6179657220772f206368617261637465722025732061626f757420746f2061747461636b2e2048617320257320485020616e64202573204144a2646970667358221220b3d3792753642812fa96fe67ea48a36faa0fe2b55ef8c4dd5522bd98f5ca2cfa64736f6c63430008000033446f6e6520696e697469616c697a696e6720626f737320257320772f2048502025732c20696d67202573446f6e6520696e697469616c697a696e6720257320772f2048502025732c20257320417461636b2044616d6167652c20",
  "linkReferences": {},
  "deployedLinkReferences": {}
}